{
  "_format": "hh-sol-artifact-1",
  "contractName": "Fof",
  "sourceName": "contracts/Fof.sol",
  "abi": [
    {
      "inputs": [
        {
          "internalType": "string",
          "name": "name",
          "type": "string"
        },
        {
          "internalType": "string",
          "name": "symbol",
          "type": "string"
        },
        {
          "internalType": "uint8",
          "name": "decimals",
          "type": "uint8"
        },
        {
          "internalType": "address",
          "name": "initialOwner",
          "type": "address"
        },
        {
          "internalType": "address",
          "name": "initialMintRecipient",
          "type": "address"
        }
      ],
      "stateMutability": "nonpayable",
      "type": "constructor"
    },
    {
      "inputs": [],
      "name": "AirdropAlreadyClaimed",
      "type": "error"
    },
    {
      "inputs": [],
      "name": "AirdropIsClosed",
      "type": "error"
    },
    {
      "inputs": [],
      "name": "AlreadyExists",
      "type": "error"
    },
    {
      "inputs": [],
      "name": "CannotRemoveFromERC721TransferExempt",
      "type": "error"
    },
    {
      "inputs": [],
      "name": "DecimalsTooLow",
      "type": "error"
    },
    {
      "inputs": [
        {
          "internalType": "uint256",
          "name": "requested",
          "type": "uint256"
        },
        {
          "internalType": "uint256",
          "name": "maxSizeAtOneTime",
          "type": "uint256"
        }
      ],
      "name": "ExceedsMaxSizeAtOneTime",
      "type": "error"
    },
    {
      "inputs": [
        {
          "internalType": "uint256",
          "name": "requested",
          "type": "uint256"
        },
        {
          "internalType": "uint256",
          "name": "remaining",
          "type": "uint256"
        }
      ],
      "name": "ExceedsMaxSupply",
      "type": "error"
    },
    {
      "inputs": [],
      "name": "InsufficientAllowance",
      "type": "error"
    },
    {
      "inputs": [
        {
          "internalType": "uint256",
          "name": "required",
          "type": "uint256"
        },
        {
          "internalType": "uint256",
          "name": "sent",
          "type": "uint256"
        }
      ],
      "name": "InsufficientEther",
      "type": "error"
    },
    {
      "inputs": [],
      "name": "InvalidApproval",
      "type": "error"
    },
    {
      "inputs": [],
      "name": "InvalidId",
      "type": "error"
    },
    {
      "inputs": [],
      "name": "InvalidOperator",
      "type": "error"
    },
    {
      "inputs": [],
      "name": "InvalidRecipient",
      "type": "error"
    },
    {
      "inputs": [],
      "name": "InvalidSender",
      "type": "error"
    },
    {
      "inputs": [],
      "name": "InvalidSigner",
      "type": "error"
    },
    {
      "inputs": [],
      "name": "InvalidSpender",
      "type": "error"
    },
    {
      "inputs": [],
      "name": "NotEligibleForAirdrop",
      "type": "error"
    },
    {
      "inputs": [],
      "name": "NotFound",
      "type": "error"
    },
    {
      "inputs": [
        {
          "internalType": "address",
          "name": "owner",
          "type": "address"
        }
      ],
      "name": "OwnableInvalidOwner",
      "type": "error"
    },
    {
      "inputs": [
        {
          "internalType": "address",
          "name": "account",
          "type": "address"
        }
      ],
      "name": "OwnableUnauthorizedAccount",
      "type": "error"
    },
    {
      "inputs": [],
      "name": "OwnedIndexOverflow",
      "type": "error"
    },
    {
      "inputs": [],
      "name": "PermitDeadlineExpired",
      "type": "error"
    },
    {
      "inputs": [],
      "name": "PublicMintNotActive",
      "type": "error"
    },
    {
      "inputs": [],
      "name": "QueueEmpty",
      "type": "error"
    },
    {
      "inputs": [],
      "name": "QueueFull",
      "type": "error"
    },
    {
      "inputs": [],
      "name": "RecipientIsERC721TransferExempt",
      "type": "error"
    },
    {
      "inputs": [],
      "name": "ReentrancyGuardReentrantCall",
      "type": "error"
    },
    {
      "inputs": [],
      "name": "SenderIsERC721TransferExempt",
      "type": "error"
    },
    {
      "inputs": [],
      "name": "Unauthorized",
      "type": "error"
    },
    {
      "inputs": [],
      "name": "UnsafeRecipient",
      "type": "error"
    },
    {
      "anonymous": false,
      "inputs": [
        {
          "indexed": true,
          "internalType": "address",
          "name": "owner",
          "type": "address"
        },
        {
          "indexed": true,
          "internalType": "address",
          "name": "operator",
          "type": "address"
        },
        {
          "indexed": false,
          "internalType": "bool",
          "name": "approved",
          "type": "bool"
        }
      ],
      "name": "ApprovalForAll",
      "type": "event"
    },
    {
      "anonymous": false,
      "inputs": [
        {
          "indexed": false,
          "internalType": "address",
          "name": "owner",
          "type": "address"
        },
        {
          "indexed": false,
          "internalType": "address",
          "name": "spender",
          "type": "address"
        },
        {
          "indexed": false,
          "internalType": "uint256",
          "name": "value",
          "type": "uint256"
        }
      ],
      "name": "ERC20Approval",
      "type": "event"
    },
    {
      "anonymous": false,
      "inputs": [
        {
          "indexed": true,
          "internalType": "address",
          "name": "from",
          "type": "address"
        },
        {
          "indexed": true,
          "internalType": "address",
          "name": "to",
          "type": "address"
        },
        {
          "indexed": false,
          "internalType": "uint256",
          "name": "amount",
          "type": "uint256"
        }
      ],
      "name": "ERC20Transfer",
      "type": "event"
    },
    {
      "anonymous": false,
      "inputs": [
        {
          "indexed": true,
          "internalType": "address",
          "name": "owner",
          "type": "address"
        },
        {
          "indexed": true,
          "internalType": "address",
          "name": "spender",
          "type": "address"
        },
        {
          "indexed": true,
          "internalType": "uint256",
          "name": "id",
          "type": "uint256"
        }
      ],
      "name": "ERC721Approval",
      "type": "event"
    },
    {
      "anonymous": false,
      "inputs": [
        {
          "indexed": true,
          "internalType": "address",
          "name": "from",
          "type": "address"
        },
        {
          "indexed": true,
          "internalType": "address",
          "name": "to",
          "type": "address"
        },
        {
          "indexed": true,
          "internalType": "uint256",
          "name": "id",
          "type": "uint256"
        }
      ],
      "name": "ERC721Transfer",
      "type": "event"
    },
    {
      "anonymous": false,
      "inputs": [
        {
          "indexed": true,
          "internalType": "address",
          "name": "previousOwner",
          "type": "address"
        },
        {
          "indexed": true,
          "internalType": "address",
          "name": "newOwner",
          "type": "address"
        }
      ],
      "name": "OwnershipTransferred",
      "type": "event"
    },
    {
      "inputs": [],
      "name": "DOMAIN_SEPARATOR",
      "outputs": [
        {
          "internalType": "bytes32",
          "name": "",
          "type": "bytes32"
        }
      ],
      "stateMutability": "view",
      "type": "function"
    },
    {
      "inputs": [],
      "name": "MAX_FOF_ERC721",
      "outputs": [
        {
          "internalType": "uint256",
          "name": "",
          "type": "uint256"
        }
      ],
      "stateMutability": "view",
      "type": "function"
    },
    {
      "inputs": [],
      "name": "MAX_SIZE_AT_ONE_TIME",
      "outputs": [
        {
          "internalType": "uint256",
          "name": "",
          "type": "uint256"
        }
      ],
      "stateMutability": "view",
      "type": "function"
    },
    {
      "inputs": [],
      "name": "airdropIsOpen",
      "outputs": [
        {
          "internalType": "bool",
          "name": "",
          "type": "bool"
        }
      ],
      "stateMutability": "view",
      "type": "function"
    },
    {
      "inputs": [],
      "name": "airdropMerkleRoot",
      "outputs": [
        {
          "internalType": "bytes32",
          "name": "",
          "type": "bytes32"
        }
      ],
      "stateMutability": "view",
      "type": "function"
    },
    {
      "inputs": [
        {
          "internalType": "bytes32[]",
          "name": "proof_",
          "type": "bytes32[]"
        },
        {
          "internalType": "uint256",
          "name": "value_",
          "type": "uint256"
        }
      ],
      "name": "airdropMint",
      "outputs": [],
      "stateMutability": "nonpayable",
      "type": "function"
    },
    {
      "inputs": [
        {
          "internalType": "address",
          "name": "",
          "type": "address"
        },
        {
          "internalType": "address",
          "name": "",
          "type": "address"
        }
      ],
      "name": "allowance",
      "outputs": [
        {
          "internalType": "uint256",
          "name": "",
          "type": "uint256"
        }
      ],
      "stateMutability": "view",
      "type": "function"
    },
    {
      "inputs": [
        {
          "internalType": "address",
          "name": "spender_",
          "type": "address"
        },
        {
          "internalType": "uint256",
          "name": "valueOrId_",
          "type": "uint256"
        }
      ],
      "name": "approve",
      "outputs": [
        {
          "internalType": "bool",
          "name": "",
          "type": "bool"
        }
      ],
      "stateMutability": "nonpayable",
      "type": "function"
    },
    {
      "inputs": [
        {
          "internalType": "address",
          "name": "",
          "type": "address"
        }
      ],
      "name": "balanceOf",
      "outputs": [
        {
          "internalType": "uint256",
          "name": "",
          "type": "uint256"
        }
      ],
      "stateMutability": "view",
      "type": "function"
    },
    {
      "inputs": [],
      "name": "decimals",
      "outputs": [
        {
          "internalType": "uint8",
          "name": "",
          "type": "uint8"
        }
      ],
      "stateMutability": "view",
      "type": "function"
    },
    {
      "inputs": [
        {
          "internalType": "address",
          "name": "owner_",
          "type": "address"
        }
      ],
      "name": "erc20BalanceOf",
      "outputs": [
        {
          "internalType": "uint256",
          "name": "",
          "type": "uint256"
        }
      ],
      "stateMutability": "view",
      "type": "function"
    },
    {
      "inputs": [],
      "name": "erc20TotalSupply",
      "outputs": [
        {
          "internalType": "uint256",
          "name": "",
          "type": "uint256"
        }
      ],
      "stateMutability": "view",
      "type": "function"
    },
    {
      "inputs": [
        {
          "internalType": "address",
          "name": "owner_",
          "type": "address"
        }
      ],
      "name": "erc721BalanceOf",
      "outputs": [
        {
          "internalType": "uint256",
          "name": "",
          "type": "uint256"
        }
      ],
      "stateMutability": "view",
      "type": "function"
    },
    {
      "inputs": [],
      "name": "erc721TokensBankedInQueue",
      "outputs": [
        {
          "internalType": "uint256",
          "name": "",
          "type": "uint256"
        }
      ],
      "stateMutability": "view",
      "type": "function"
    },
    {
      "inputs": [],
      "name": "erc721TotalSupply",
      "outputs": [
        {
          "internalType": "uint256",
          "name": "",
          "type": "uint256"
        }
      ],
      "stateMutability": "view",
      "type": "function"
    },
    {
      "inputs": [
        {
          "internalType": "address",
          "name": "",
          "type": "address"
        }
      ],
      "name": "erc721TransferExempt",
      "outputs": [
        {
          "internalType": "bool",
          "name": "",
          "type": "bool"
        }
      ],
      "stateMutability": "view",
      "type": "function"
    },
    {
      "inputs": [
        {
          "internalType": "uint256",
          "name": "",
          "type": "uint256"
        }
      ],
      "name": "getApproved",
      "outputs": [
        {
          "internalType": "address",
          "name": "",
          "type": "address"
        }
      ],
      "stateMutability": "view",
      "type": "function"
    },
    {
      "inputs": [],
      "name": "getPublicMintPrice",
      "outputs": [
        {
          "internalType": "uint256",
          "name": "",
          "type": "uint256"
        }
      ],
      "stateMutability": "view",
      "type": "function"
    },
    {
      "inputs": [
        {
          "internalType": "address",
          "name": "",
          "type": "address"
        }
      ],
      "name": "hasClaimedAirdrop",
      "outputs": [
        {
          "internalType": "bool",
          "name": "",
          "type": "bool"
        }
      ],
      "stateMutability": "view",
      "type": "function"
    },
    {
      "inputs": [
        {
          "internalType": "address",
          "name": "",
          "type": "address"
        },
        {
          "internalType": "address",
          "name": "",
          "type": "address"
        }
      ],
      "name": "isApprovedForAll",
      "outputs": [
        {
          "internalType": "bool",
          "name": "",
          "type": "bool"
        }
      ],
      "stateMutability": "view",
      "type": "function"
    },
    {
      "inputs": [],
      "name": "isPublicMint",
      "outputs": [
        {
          "internalType": "bool",
          "name": "",
          "type": "bool"
        }
      ],
      "stateMutability": "view",
      "type": "function"
    },
    {
      "inputs": [],
      "name": "name",
      "outputs": [
        {
          "internalType": "string",
          "name": "",
          "type": "string"
        }
      ],
      "stateMutability": "view",
      "type": "function"
    },
    {
      "inputs": [
        {
          "internalType": "address",
          "name": "",
          "type": "address"
        }
      ],
      "name": "nonces",
      "outputs": [
        {
          "internalType": "uint256",
          "name": "",
          "type": "uint256"
        }
      ],
      "stateMutability": "view",
      "type": "function"
    },
    {
      "inputs": [
        {
          "internalType": "address",
          "name": "owner_",
          "type": "address"
        }
      ],
      "name": "owned",
      "outputs": [
        {
          "internalType": "uint256[]",
          "name": "",
          "type": "uint256[]"
        }
      ],
      "stateMutability": "view",
      "type": "function"
    },
    {
      "inputs": [],
      "name": "owner",
      "outputs": [
        {
          "internalType": "address",
          "name": "",
          "type": "address"
        }
      ],
      "stateMutability": "view",
      "type": "function"
    },
    {
      "inputs": [
        {
          "internalType": "uint256",
          "name": "id_",
          "type": "uint256"
        }
      ],
      "name": "ownerOf",
      "outputs": [
        {
          "internalType": "address",
          "name": "erc721Owner",
          "type": "address"
        }
      ],
      "stateMutability": "view",
      "type": "function"
    },
    {
      "inputs": [
        {
          "internalType": "address",
          "name": "owner_",
          "type": "address"
        },
        {
          "internalType": "address",
          "name": "spender_",
          "type": "address"
        },
        {
          "internalType": "uint256",
          "name": "value_",
          "type": "uint256"
        },
        {
          "internalType": "uint256",
          "name": "deadline_",
          "type": "uint256"
        },
        {
          "internalType": "uint8",
          "name": "v_",
          "type": "uint8"
        },
        {
          "internalType": "bytes32",
          "name": "r_",
          "type": "bytes32"
        },
        {
          "internalType": "bytes32",
          "name": "s_",
          "type": "bytes32"
        }
      ],
      "name": "permit",
      "outputs": [],
      "stateMutability": "nonpayable",
      "type": "function"
    },
    {
      "inputs": [
        {
          "internalType": "uint256",
          "name": "mintCount",
          "type": "uint256"
        }
      ],
      "name": "publicMint",
      "outputs": [],
      "stateMutability": "payable",
      "type": "function"
    },
    {
      "inputs": [],
      "name": "renounceOwnership",
      "outputs": [],
      "stateMutability": "nonpayable",
      "type": "function"
    },
    {
      "inputs": [
        {
          "internalType": "address",
          "name": "from_",
          "type": "address"
        },
        {
          "internalType": "address",
          "name": "to_",
          "type": "address"
        },
        {
          "internalType": "uint256",
          "name": "id_",
          "type": "uint256"
        }
      ],
      "name": "safeTransferFrom",
      "outputs": [],
      "stateMutability": "nonpayable",
      "type": "function"
    },
    {
      "inputs": [
        {
          "internalType": "address",
          "name": "from_",
          "type": "address"
        },
        {
          "internalType": "address",
          "name": "to_",
          "type": "address"
        },
        {
          "internalType": "uint256",
          "name": "id_",
          "type": "uint256"
        },
        {
          "internalType": "bytes",
          "name": "data_",
          "type": "bytes"
        }
      ],
      "name": "safeTransferFrom",
      "outputs": [],
      "stateMutability": "nonpayable",
      "type": "function"
    },
    {
      "inputs": [
        {
          "internalType": "address",
          "name": "operator_",
          "type": "address"
        },
        {
          "internalType": "bool",
          "name": "approved_",
          "type": "bool"
        }
      ],
      "name": "setApprovalForAll",
      "outputs": [],
      "stateMutability": "nonpayable",
      "type": "function"
    },
    {
      "inputs": [
        {
          "internalType": "address",
          "name": "account",
          "type": "address"
        },
        {
          "internalType": "bool",
          "name": "value",
          "type": "bool"
        }
      ],
      "name": "setERC721TransferExempt",
      "outputs": [],
      "stateMutability": "nonpayable",
      "type": "function"
    },
    {
      "inputs": [
        {
          "internalType": "bool",
          "name": "startMint",
          "type": "bool"
        }
      ],
      "name": "startPublicMint",
      "outputs": [],
      "stateMutability": "nonpayable",
      "type": "function"
    },
    {
      "inputs": [
        {
          "internalType": "bytes4",
          "name": "interfaceId",
          "type": "bytes4"
        }
      ],
      "name": "supportsInterface",
      "outputs": [
        {
          "internalType": "bool",
          "name": "",
          "type": "bool"
        }
      ],
      "stateMutability": "view",
      "type": "function"
    },
    {
      "inputs": [],
      "name": "symbol",
      "outputs": [
        {
          "internalType": "string",
          "name": "",
          "type": "string"
        }
      ],
      "stateMutability": "view",
      "type": "function"
    },
    {
      "inputs": [
        {
          "internalType": "uint256",
          "name": "id",
          "type": "uint256"
        }
      ],
      "name": "tokenURI",
      "outputs": [
        {
          "internalType": "string",
          "name": "",
          "type": "string"
        }
      ],
      "stateMutability": "pure",
      "type": "function"
    },
    {
      "inputs": [],
      "name": "totalSupply",
      "outputs": [
        {
          "internalType": "uint256",
          "name": "",
          "type": "uint256"
        }
      ],
      "stateMutability": "view",
      "type": "function"
    },
    {
      "inputs": [
        {
          "internalType": "address",
          "name": "to_",
          "type": "address"
        },
        {
          "internalType": "uint256",
          "name": "value_",
          "type": "uint256"
        }
      ],
      "name": "transfer",
      "outputs": [
        {
          "internalType": "bool",
          "name": "",
          "type": "bool"
        }
      ],
      "stateMutability": "nonpayable",
      "type": "function"
    },
    {
      "inputs": [
        {
          "internalType": "address",
          "name": "from_",
          "type": "address"
        },
        {
          "internalType": "address",
          "name": "to_",
          "type": "address"
        },
        {
          "internalType": "uint256",
          "name": "valueOrId_",
          "type": "uint256"
        }
      ],
      "name": "transferFrom",
      "outputs": [
        {
          "internalType": "bool",
          "name": "",
          "type": "bool"
        }
      ],
      "stateMutability": "nonpayable",
      "type": "function"
    },
    {
      "inputs": [
        {
          "internalType": "address",
          "name": "newOwner",
          "type": "address"
        }
      ],
      "name": "transferOwnership",
      "outputs": [],
      "stateMutability": "nonpayable",
      "type": "function"
    },
    {
      "inputs": [],
      "name": "units",
      "outputs": [
        {
          "internalType": "uint256",
          "name": "",
          "type": "uint256"
        }
      ],
      "stateMutability": "view",
      "type": "function"
    },
    {
      "inputs": [
        {
          "internalType": "bytes32[]",
          "name": "proof_",
          "type": "bytes32[]"
        },
        {
          "internalType": "address",
          "name": "claimer_",
          "type": "address"
        },
        {
          "internalType": "uint256",
          "name": "value_",
          "type": "uint256"
        }
      ],
      "name": "verifyProof",
      "outputs": [
        {
          "internalType": "bool",
          "name": "",
          "type": "bool"
        }
      ],
      "stateMutability": "view",
      "type": "function"
    },
    {
      "inputs": [
        {
          "internalType": "address",
          "name": "account",
          "type": "address"
        },
        {
          "internalType": "uint256",
          "name": "amount",
          "type": "uint256"
        }
      ],
      "name": "withdraw",
      "outputs": [],
      "stateMutability": "nonpayable",
      "type": "function"
    }
  ],
  "bytecode": "0x6101006040526000601360006101000a81548160ff02191690831515021790555060006014553480156200003257600080fd5b5060405162006c3f38038062006c3f833981810160405281019062000058919062001170565b8185858582600290816200006d919062001481565b5081600390816200007f919062001481565b5060128160ff161015620000bf576040517f98790fd500000000000000000000000000000000000000000000000000000000815260040160405180910390fd5b8060ff1660808160ff1681525050608051600a620000de9190620016eb565b60a081815250504660c08181525050620000fd620001f060201b60201c565b60e08181525050505050600073ffffffffffffffffffffffffffffffffffffffff168173ffffffffffffffffffffffffffffffffffffffff16036200017c5760006040517f1e4fbdf70000000000000000000000000000000000000000000000000000000081526004016200017391906200174d565b60405180910390fd5b6200018d816200028060201b60201c565b506001601281905550620001a98160016200034660201b60201c565b620001ce8160a051618ca0620001c091906200176a565b6000620003fa60201b60201c565b60a051600a620001df91906200176a565b601481905550505050505062001aab565b60007f8b73c3c69bb8fe3d512ecc4cf759cc79239f7b179b0ffacaa9a75d522b39400f600260405162000224919062001864565b60405180910390207fc89efdaa54c0f20c7adf612882df0950f5a951637e0307cdcb4c672f298b8bc6463060405160200162000265959493929190620018a9565b60405160208183030381529060405280519060200120905090565b6000601160009054906101000a900473ffffffffffffffffffffffffffffffffffffffff16905081601160006101000a81548173ffffffffffffffffffffffffffffffffffffffff021916908373ffffffffffffffffffffffffffffffffffffffff1602179055508173ffffffffffffffffffffffffffffffffffffffff168173ffffffffffffffffffffffffffffffffffffffff167f8be0079c531659141344cd1fd0a4f28419497f9722a3daafe3b4186f6b6457e060405160405180910390a35050565b60a0516200035a836200051a60201b60201c565b1015801562000367575080155b156200039f576040517f3908ab3c00000000000000000000000000000000000000000000000000000000815260040160405180910390fd5b80600c60008473ffffffffffffffffffffffffffffffffffffffff1673ffffffffffffffffffffffffffffffffffffffff16815260200190815260200160002060006101000a81548160ff0219169083151502179055505050565b600073ffffffffffffffffffffffffffffffffffffffff168373ffffffffffffffffffffffffffffffffffffffff160362000461576040517f9c8d2cd200000000000000000000000000000000000000000000000000000000815260040160405180910390fd5b62000475600084846200056360201b60201c565b808015620004cd5750600c60008473ffffffffffffffffffffffffffffffffffffffff1673ffffffffffffffffffffffffffffffffffffffff16815260200190815260200160002060009054906101000a900460ff16155b156200051557600060a05183620004e5919062001935565b905060005b8181101562000512576200050485620006cb60201b60201c565b8080600101915050620004ea565b50505b505050565b6000600660008373ffffffffffffffffffffffffffffffffffffffff1673ffffffffffffffffffffffffffffffffffffffff168152602001908152602001600020549050919050565b600073ffffffffffffffffffffffffffffffffffffffff168373ffffffffffffffffffffffffffffffffffffffff1603620005b9578060046000828254620005ac91906200196d565b9250508190555062000612565b80600660008573ffffffffffffffffffffffffffffffffffffffff1673ffffffffffffffffffffffffffffffffffffffff16815260200190815260200160002060008282546200060a9190620019a8565b925050819055505b80600660008473ffffffffffffffffffffffffffffffffffffffff1673ffffffffffffffffffffffffffffffffffffffff168152602001908152602001600020600082825401925050819055508173ffffffffffffffffffffffffffffffffffffffff168373ffffffffffffffffffffffffffffffffffffffff167fe59fdd36d0d223c0c7d996db7ad796880f45e1936cb0bb7ac102e7082e03148783604051620006be9190620019e3565b60405180910390a3505050565b600073ffffffffffffffffffffffffffffffffffffffff168173ffffffffffffffffffffffffffffffffffffffff160362000732576040517f9c8d2cd200000000000000000000000000000000000000000000000000000000815260040160405180910390fd5b60006200074660006200081960201b60201c565b62000765576200075d60006200088960201b60201c565b905062000785565b600560008154809291906200077a9062001a00565b919050555060055490505b60006200079882620009ee60201b60201c565b9050600073ffffffffffffffffffffffffffffffffffffffff168173ffffffffffffffffffffffffffffffffffffffff161462000801576040517f23369fa600000000000000000000000000000000000000000000000000000000815260040160405180910390fd5b6200081481848462000a2660201b60201c565b505050565b60008160000160009054906101000a90046fffffffffffffffffffffffffffffffff166fffffffffffffffffffffffffffffffff168260000160109054906101000a90046fffffffffffffffffffffffffffffffff166fffffffffffffffffffffffffffffffff16149050919050565b6000808260000160109054906101000a90046fffffffffffffffffffffffffffffffff1690508260000160009054906101000a90046fffffffffffffffffffffffffffffffff166fffffffffffffffffffffffffffffffff16816fffffffffffffffffffffffffffffffff16036200092d576040517f75e52f4f00000000000000000000000000000000000000000000000000000000815260040160405180910390fd5b80600190039050826001016000826fffffffffffffffffffffffffffffffff166fffffffffffffffffffffffffffffffff168152602001908152602001600020549150826001016000826fffffffffffffffffffffffffffffffff166fffffffffffffffffffffffffffffffff16815260200190815260200160002060009055808360000160106101000a8154816fffffffffffffffffffffffffffffffff02191690836fffffffffffffffffffffffffffffffff16021790555050919050565b600080600a600084815260200190815260200160002054905073ffffffffffffffffffffffffffffffffffffffff8116915050919050565b600073ffffffffffffffffffffffffffffffffffffffff168373ffffffffffffffffffffffffffffffffffffffff161462000c42576008600082815260200190815260200160002060006101000a81549073ffffffffffffffffffffffffffffffffffffffff02191690556000600b60008573ffffffffffffffffffffffffffffffffffffffff1673ffffffffffffffffffffffffffffffffffffffff1681526020019081526020016000206001600b60008773ffffffffffffffffffffffffffffffffffffffff1673ffffffffffffffffffffffffffffffffffffffff1681526020019081526020016000208054905062000b239190620019a8565b8154811062000b375762000b3662001a4d565b5b9060005260206000200154905081811462000bd857600062000b5f8362000dcf60201b60201c565b905081600b60008773ffffffffffffffffffffffffffffffffffffffff1673ffffffffffffffffffffffffffffffffffffffff168152602001908152602001600020828154811062000bb65762000bb562001a4d565b5b906000526020600020018190555062000bd6828262000df460201b60201c565b505b600b60008573ffffffffffffffffffffffffffffffffffffffff1673ffffffffffffffffffffffffffffffffffffffff16815260200190815260200160002080548062000c2a5762000c2962001a7c565b5b60019003818190600052602060002001600090559055505b600073ffffffffffffffffffffffffffffffffffffffff168273ffffffffffffffffffffffffffffffffffffffff161462000d575762000c89818362000ec860201b60201c565b600b60008373ffffffffffffffffffffffffffffffffffffffff1673ffffffffffffffffffffffffffffffffffffffff16815260200190815260200160002081908060018154018082558091505060019003906000526020600020016000909190919091505562000d51816001600b60008673ffffffffffffffffffffffffffffffffffffffff1673ffffffffffffffffffffffffffffffffffffffff1681526020019081526020016000208054905062000d459190620019a8565b62000df460201b60201c565b62000d6f565b600a6000828152602001908152602001600020600090555b808273ffffffffffffffffffffffffffffffffffffffff168473ffffffffffffffffffffffffffffffffffffffff167fe5f815dc84b8cecdfd4beedfc3f91ab5be7af100eca4e8fb11552b867995394f60405160405180910390a4505050565b600080600a60008481526020019081526020016000205490508060a01c915050919050565b6000600a600084815260200190815260200160002054905060a07fffffffffffffffffffffffff0000000000000000000000000000000000000000901c82111562000e6b576040517ffcb3438c00000000000000000000000000000000000000000000000000000000815260040160405180910390fd5b7fffffffffffffffffffffffff00000000000000000000000000000000000000008260a01b1673ffffffffffffffffffffffffffffffffffffffff821601905080600a600085815260200190815260200160002081905550505050565b6000600a600084815260200190815260200160002054905073ffffffffffffffffffffffffffffffffffffffff82167fffffffffffffffffffffffff0000000000000000000000000000000000000000821601905080600a600085815260200190815260200160002081905550505050565b6000604051905090565b600080fd5b600080fd5b600080fd5b600080fd5b6000601f19601f8301169050919050565b7f4e487b7100000000000000000000000000000000000000000000000000000000600052604160045260246000fd5b62000fa38262000f58565b810181811067ffffffffffffffff8211171562000fc55762000fc462000f69565b5b80604052505050565b600062000fda62000f3a565b905062000fe8828262000f98565b919050565b600067ffffffffffffffff8211156200100b576200100a62000f69565b5b620010168262000f58565b9050602081019050919050565b60005b838110156200104357808201518184015260208101905062001026565b60008484015250505050565b600062001066620010608462000fed565b62000fce565b90508281526020810184848401111562001085576200108462000f53565b5b6200109284828562001023565b509392505050565b600082601f830112620010b257620010b162000f4e565b5b8151620010c48482602086016200104f565b91505092915050565b600060ff82169050919050565b620010e581620010cd565b8114620010f157600080fd5b50565b6000815190506200110581620010da565b92915050565b600073ffffffffffffffffffffffffffffffffffffffff82169050919050565b600062001138826200110b565b9050919050565b6200114a816200112b565b81146200115657600080fd5b50565b6000815190506200116a816200113f565b92915050565b600080600080600060a086880312156200118f576200118e62000f44565b5b600086015167ffffffffffffffff811115620011b057620011af62000f49565b5b620011be888289016200109a565b955050602086015167ffffffffffffffff811115620011e257620011e162000f49565b5b620011f0888289016200109a565b94505060406200120388828901620010f4565b9350506060620012168882890162001159565b9250506080620012298882890162001159565b9150509295509295909350565b600081519050919050565b7f4e487b7100000000000000000000000000000000000000000000000000000000600052602260045260246000fd5b600060028204905060018216806200128957607f821691505b6020821081036200129f576200129e62001241565b5b50919050565b60008190508160005260206000209050919050565b60006020601f8301049050919050565b600082821b905092915050565b600060088302620013097fffffffffffffffffffffffffffffffffffffffffffffffffffffffffffffffff82620012ca565b620013158683620012ca565b95508019841693508086168417925050509392505050565b6000819050919050565b6000819050919050565b6000620013626200135c62001356846200132d565b62001337565b6200132d565b9050919050565b6000819050919050565b6200137e8362001341565b620013966200138d8262001369565b848454620012d7565b825550505050565b600090565b620013ad6200139e565b620013ba81848462001373565b505050565b5b81811015620013e257620013d6600082620013a3565b600181019050620013c0565b5050565b601f8211156200143157620013fb81620012a5565b6200140684620012ba565b8101602085101562001416578190505b6200142e6200142585620012ba565b830182620013bf565b50505b505050565b600082821c905092915050565b6000620014566000198460080262001436565b1980831691505092915050565b600062001471838362001443565b9150826002028217905092915050565b6200148c8262001236565b67ffffffffffffffff811115620014a857620014a762000f69565b5b620014b4825462001270565b620014c1828285620013e6565b600060209050601f831160018114620014f95760008415620014e4578287015190505b620014f0858262001463565b86555062001560565b601f1984166200150986620012a5565b60005b8281101562001533578489015182556001820191506020850194506020810190506200150c565b868310156200155357848901516200154f601f89168262001443565b8355505b6001600288020188555050505b505050505050565b7f4e487b7100000000000000000000000000000000000000000000000000000000600052601160045260246000fd5b60008160011c9050919050565b6000808291508390505b6001851115620015f657808604811115620015ce57620015cd62001568565b5b6001851615620015de5780820291505b8081029050620015ee8562001597565b9450620015ae565b94509492505050565b600082620016115760019050620016e4565b81620016215760009050620016e4565b81600181146200163a576002811462001645576200167b565b6001915050620016e4565b60ff8411156200165a576200165962001568565b5b8360020a91508482111562001674576200167362001568565b5b50620016e4565b5060208310610133831016604e8410600b8410161715620016b55782820a905083811115620016af57620016ae62001568565b5b620016e4565b620016c48484846001620015a4565b92509050818404811115620016de57620016dd62001568565b5b81810290505b9392505050565b6000620016f8826200132d565b91506200170583620010cd565b9250620017347fffffffffffffffffffffffffffffffffffffffffffffffffffffffffffffffff8484620015ff565b905092915050565b62001747816200112b565b82525050565b60006020820190506200176460008301846200173c565b92915050565b600062001777826200132d565b915062001784836200132d565b925082820262001794816200132d565b91508282048414831517620017ae57620017ad62001568565b5b5092915050565b600081905092915050565b60008190508160005260206000209050919050565b60008154620017e48162001270565b620017f08186620017b5565b945060018216600081146200180e576001811462001824576200185b565b60ff19831686528115158202860193506200185b565b6200182f85620017c0565b60005b83811015620018535781548189015260018201915060208101905062001832565b838801955050505b50505092915050565b6000620018728284620017d5565b915081905092915050565b6000819050919050565b62001892816200187d565b82525050565b620018a3816200132d565b82525050565b600060a082019050620018c0600083018862001887565b620018cf602083018762001887565b620018de604083018662001887565b620018ed606083018562001898565b620018fc60808301846200173c565b9695505050505050565b7f4e487b7100000000000000000000000000000000000000000000000000000000600052601260045260246000fd5b600062001942826200132d565b91506200194f836200132d565b92508262001962576200196162001906565b5b828204905092915050565b60006200197a826200132d565b915062001987836200132d565b9250828201905080821115620019a257620019a162001568565b5b92915050565b6000620019b5826200132d565b9150620019c2836200132d565b9250828203905081811115620019dd57620019dc62001568565b5b92915050565b6000602082019050620019fa600083018462001898565b92915050565b600062001a0d826200132d565b91507fffffffffffffffffffffffffffffffffffffffffffffffffffffffffffffffff820362001a425762001a4162001568565b5b600182019050919050565b7f4e487b7100000000000000000000000000000000000000000000000000000000600052603260045260246000fd5b7f4e487b7100000000000000000000000000000000000000000000000000000000600052603160045260246000fd5b60805160a05160c05160e0516150c762001b78600039600061182c015260006117f80152600081816113cd0152818161156301528181611596015281816116b7015281816116fb0152818161177d01528181611ac601528181611ae901528181611ce00152818161265a01528181612d6001528181612d8c01528181612e3301528181612e9e01528181612f00015281816130090152818161303701528181613063015281816130aa015281816130d6015281816132470152613533015260006117d201526150c76000f3fe6080604052600436106102675760003560e01c806389fb4c6611610144578063c5ab3ba6116100b6578063e985e9c51161007a578063e985e9c5146109ab578063f2fde38b146109e8578063f3fef3a314610a11578063f4cdda3614610a3a578063fa0fc8c614610a77578063fb169d9914610aa257610267565b8063c5ab3ba6146108b4578063c6e672b9146108df578063c87b56dd14610908578063d505accf14610945578063dd62ed3e1461096e57610267565b8063a22cb46511610108578063a22cb46514610780578063a5ce30d2146107a9578063a9059cbb146107d4578063b1ab931714610811578063b3f9ea341461084e578063b88d4fde1461088b57610267565b806389fb4c66146106ab5780638b2d8dec146106d65780638da5cb5b146106ff57806395d89b411461072a578063976a84351461075557610267565b80633057931f116101dd57806370a08231116101a157806370a0823114610587578063715018a6146105c4578063726d20fe146105db578063744dab38146106185780637ecebe001461064357806383443c521461068057610267565b80633057931f146104a0578063313ce567146104cb5780633644e515146104f657806342842e0e146105215780636352211e1461054a57610267565b806309d890d51161022f57806309d890d51461038b57806309f0ef65146103b657806318160ddd146103f35780631e60fb3b1461041e57806323b872dd146104475780632db115441461048457610267565b806301ffc9a71461026c57806302519da3146102a957806306fdde03146102e6578063081812fc14610311578063095ea7b31461034e575b600080fd5b34801561027857600080fd5b50610293600480360381019061028e9190613fe7565b610acd565b6040516102a0919061402f565b60405180910390f35b3480156102b557600080fd5b506102d060048036038101906102cb91906140a8565b610b9f565b6040516102dd91906140ee565b60405180910390f35b3480156102f257600080fd5b506102fb610be8565b6040516103089190614199565b60405180910390f35b34801561031d57600080fd5b50610338600480360381019061033391906141e7565b610c76565b6040516103459190614223565b60405180910390f35b34801561035a57600080fd5b506103756004803603810190610370919061423e565b610ca9565b604051610382919061402f565b60405180910390f35b34801561039757600080fd5b506103a0610fb5565b6040516103ad91906140ee565b60405180910390f35b3480156103c257600080fd5b506103dd60048036038101906103d891906140a8565b610fc6565b6040516103ea919061402f565b60405180910390f35b3480156103ff57600080fd5b50610408610fe6565b60405161041591906140ee565b60405180910390f35b34801561042a57600080fd5b50610445600480360381019061044091906142aa565b610fec565b005b34801561045357600080fd5b5061046e600480360381019061046991906142d7565b611011565b60405161047b919061402f565b60405180910390f35b61049e600480360381019061049991906141e7565b611556565b005b3480156104ac57600080fd5b506104b56117b9565b6040516104c2919061402f565b60405180910390f35b3480156104d757600080fd5b506104e06117d0565b6040516104ed9190614346565b60405180910390f35b34801561050257600080fd5b5061050b6117f4565b604051610518919061437a565b60405180910390f35b34801561052d57600080fd5b50610548600480360381019061054391906142d7565b611851565b005b34801561055657600080fd5b50610571600480360381019061056c91906141e7565b611985565b60405161057e9190614223565b60405180910390f35b34801561059357600080fd5b506105ae60048036038101906105a991906140a8565b611a15565b6040516105bb91906140ee565b60405180910390f35b3480156105d057600080fd5b506105d9611a2d565b005b3480156105e757600080fd5b5061060260048036038101906105fd9190614509565b611a41565b60405161060f919061402f565b60405180910390f35b34801561062457600080fd5b5061062d611abe565b60405161063a91906140ee565b60405180910390f35b34801561064f57600080fd5b5061066a600480360381019061066591906140a8565b611b8b565b60405161067791906140ee565b60405180910390f35b34801561068c57600080fd5b50610695611ba3565b6040516106a2919061402f565b60405180910390f35b3480156106b757600080fd5b506106c0611bb6565b6040516106cd91906140ee565b60405180910390f35b3480156106e257600080fd5b506106fd60048036038101906106f89190614578565b611bc0565b005b34801561070b57600080fd5b50610714611c26565b6040516107219190614223565b60405180910390f35b34801561073657600080fd5b5061073f611c50565b60405161074c9190614199565b60405180910390f35b34801561076157600080fd5b5061076a611cde565b60405161077791906140ee565b60405180910390f35b34801561078c57600080fd5b506107a760048036038101906107a291906145d4565b611d02565b005b3480156107b557600080fd5b506107be611e65565b6040516107cb919061437a565b60405180910390f35b3480156107e057600080fd5b506107fb60048036038101906107f6919061423e565b611e6b565b604051610808919061402f565b60405180910390f35b34801561081d57600080fd5b50610838600480360381019061083391906140a8565b611ee5565b60405161084591906146d2565b60405180910390f35b34801561085a57600080fd5b50610875600480360381019061087091906140a8565b611f7c565b60405161088291906140ee565b60405180910390f35b34801561089757600080fd5b506108b260048036038101906108ad919061474f565b611fc8565b005b3480156108c057600080fd5b506108c9612102565b6040516108d691906140ee565b60405180910390f35b3480156108eb57600080fd5b50610906600480360381019061090191906145d4565b61210c565b005b34801561091457600080fd5b5061092f600480360381019061092a91906141e7565b612122565b60405161093c9190614199565b60405180910390f35b34801561095157600080fd5b5061096c60048036038101906109679190614803565b612153565b005b34801561097a57600080fd5b50610995600480360381019061099091906148a5565b6124bf565b6040516109a291906140ee565b60405180910390f35b3480156109b757600080fd5b506109d260048036038101906109cd91906148a5565b6124e4565b6040516109df919061402f565b60405180910390f35b3480156109f457600080fd5b50610a0f6004803603810190610a0a91906140a8565b612513565b005b348015610a1d57600080fd5b50610a386004803603810190610a33919061423e565b612599565b005b348015610a4657600080fd5b50610a616004803603810190610a5c91906140a8565b61262f565b604051610a6e919061402f565b60405180910390f35b348015610a8357600080fd5b50610a8c61264f565b604051610a9991906140ee565b60405180910390f35b348015610aae57600080fd5b50610ab7612656565b604051610ac491906140ee565b60405180910390f35b60007f219d65bb000000000000000000000000000000000000000000000000000000007bffffffffffffffffffffffffffffffffffffffffffffffffffffffff1916827bffffffffffffffffffffffffffffffffffffffffffffffffffffffff19161480610b9857507f01ffc9a7000000000000000000000000000000000000000000000000000000007bffffffffffffffffffffffffffffffffffffffffffffffffffffffff1916827bffffffffffffffffffffffffffffffffffffffffffffffffffffffff1916145b9050919050565b6000600660008373ffffffffffffffffffffffffffffffffffffffff1673ffffffffffffffffffffffffffffffffffffffff168152602001908152602001600020549050919050565b60028054610bf590614914565b80601f0160208091040260200160405190810160405280929190818152602001828054610c2190614914565b8015610c6e5780601f10610c4357610100808354040283529160200191610c6e565b820191906000526020600020905b815481529060010190602001808311610c5157829003601f168201915b505050505081565b60086020528060005260406000206000915054906101000a900473ffffffffffffffffffffffffffffffffffffffff1681565b60006005548211158015610cbd5750600082115b15610e825760008290506000610cd28261268b565b90508073ffffffffffffffffffffffffffffffffffffffff163373ffffffffffffffffffffffffffffffffffffffff1614158015610d975750600960008273ffffffffffffffffffffffffffffffffffffffff1673ffffffffffffffffffffffffffffffffffffffff16815260200190815260200160002060003373ffffffffffffffffffffffffffffffffffffffff1673ffffffffffffffffffffffffffffffffffffffff16815260200190815260200160002060009054906101000a900460ff16155b15610dce576040517f82b4290000000000000000000000000000000000000000000000000000000000815260040160405180910390fd5b846008600084815260200190815260200160002060006101000a81548173ffffffffffffffffffffffffffffffffffffffff021916908373ffffffffffffffffffffffffffffffffffffffff160217905550818573ffffffffffffffffffffffffffffffffffffffff168273ffffffffffffffffffffffffffffffffffffffff167f797365dabb18fa726ccbccbe18c6f24c34e3b0653f2e99ea873bd7b84763dde660405160405180910390a45050610fab565b600073ffffffffffffffffffffffffffffffffffffffff168373ffffffffffffffffffffffffffffffffffffffff1603610ee8576040517f5461585f00000000000000000000000000000000000000000000000000000000815260040160405180910390fd5b600082905080600760003373ffffffffffffffffffffffffffffffffffffffff1673ffffffffffffffffffffffffffffffffffffffff16815260200190815260200160002060008673ffffffffffffffffffffffffffffffffffffffff1673ffffffffffffffffffffffffffffffffffffffff168152602001908152602001600020819055507f1f01303a1ce9329d9963e1937c201e23c5543a9e3536e9edead087aec7dc6d83338583604051610fa193929190614945565b60405180910390a1505b6001905092915050565b6000610fc160006126c3565b905090565b600c6020528060005260406000206000915054906101000a900460ff1681565b60045481565b610ff4612721565b80601360006101000a81548160ff02191690831515021790555050565b60008073ffffffffffffffffffffffffffffffffffffffff168473ffffffffffffffffffffffffffffffffffffffff1603611078576040517fddb5de5e00000000000000000000000000000000000000000000000000000000815260040160405180910390fd5b600073ffffffffffffffffffffffffffffffffffffffff168373ffffffffffffffffffffffffffffffffffffffff16036110de576040517f9c8d2cd200000000000000000000000000000000000000000000000000000000815260040160405180910390fd5b60055482116114025760008290506110f58161268b565b73ffffffffffffffffffffffffffffffffffffffff168573ffffffffffffffffffffffffffffffffffffffff1614611159576040517f82b4290000000000000000000000000000000000000000000000000000000000815260040160405180910390fd5b8473ffffffffffffffffffffffffffffffffffffffff163373ffffffffffffffffffffffffffffffffffffffff161415801561121c5750600960008673ffffffffffffffffffffffffffffffffffffffff1673ffffffffffffffffffffffffffffffffffffffff16815260200190815260200160002060003373ffffffffffffffffffffffffffffffffffffffff1673ffffffffffffffffffffffffffffffffffffffff16815260200190815260200160002060009054906101000a900460ff16155b801561128757506008600082815260200190815260200160002060009054906101000a900473ffffffffffffffffffffffffffffffffffffffff1673ffffffffffffffffffffffffffffffffffffffff163373ffffffffffffffffffffffffffffffffffffffff1614155b156112be576040517f82b4290000000000000000000000000000000000000000000000000000000000815260040160405180910390fd5b600c60008673ffffffffffffffffffffffffffffffffffffffff1673ffffffffffffffffffffffffffffffffffffffff16815260200190815260200160002060009054906101000a900460ff1615611342576040517f35af926600000000000000000000000000000000000000000000000000000000815260040160405180910390fd5b600c60008573ffffffffffffffffffffffffffffffffffffffff1673ffffffffffffffffffffffffffffffffffffffff16815260200190815260200160002060009054906101000a900460ff16156113c6576040517f5ce7539700000000000000000000000000000000000000000000000000000000815260040160405180910390fd5b6113f185857f00000000000000000000000000000000000000000000000000000000000000006127a8565b6113fc858583612908565b5061154b565b60008290506000600760008773ffffffffffffffffffffffffffffffffffffffff1673ffffffffffffffffffffffffffffffffffffffff16815260200190815260200160002060003373ffffffffffffffffffffffffffffffffffffffff1673ffffffffffffffffffffffffffffffffffffffff1681526020019081526020016000205490507fffffffffffffffffffffffffffffffffffffffffffffffffffffffffffffffff811461153c5781816114bb91906149ab565b600760008873ffffffffffffffffffffffffffffffffffffffff1673ffffffffffffffffffffffffffffffffffffffff16815260200190815260200160002060003373ffffffffffffffffffffffffffffffffffffffff1673ffffffffffffffffffffffffffffffffffffffff168152602001908152602001600020819055505b611547868684612c80565b5050505b600190509392505050565b61155e61312f565b6014547f00000000000000000000000000000000000000000000000000000000000000008261158d91906149df565b11156115ff57807f00000000000000000000000000000000000000000000000000000000000000006014546115c29190614a50565b6040517f2f5723a70000000000000000000000000000000000000000000000000000000081526004016115f6929190614a81565b60405180910390fd5b601360009054906101000a900460ff16611645576040517fcd967e3500000000000000000000000000000000000000000000000000000000815260040160405180910390fd5b8061164e611abe565b61165891906149df565b3410156116b05780611668611abe565b61167291906149df565b346040517fc10842230000000000000000000000000000000000000000000000000000000081526004016116a7929190614a81565b60405180910390fd5b62030d40817f00000000000000000000000000000000000000000000000000000000000000006116de611bb6565b6116e89190614a50565b6116f29190614aaa565b111561177757807f0000000000000000000000000000000000000000000000000000000000000000611722611bb6565b61172c9190614a50565b62030d4061173a91906149ab565b6040517fadc3cee500000000000000000000000000000000000000000000000000000000815260040161176e929190614a81565b60405180910390fd5b6117ae337f0000000000000000000000000000000000000000000000000000000000000000836117a791906149df565b6000613175565b6117b661329c565b50565b6000601360009054906101000a900460ff16905090565b7f000000000000000000000000000000000000000000000000000000000000000081565b60007f0000000000000000000000000000000000000000000000000000000000000000461461182a576118256132a6565b61184c565b7f00000000000000000000000000000000000000000000000000000000000000005b905090565b61185c838383611011565b5060008273ffffffffffffffffffffffffffffffffffffffff163b14158015611949575063150b7a0260e01b7bffffffffffffffffffffffffffffffffffffffffffffffffffffffff19168273ffffffffffffffffffffffffffffffffffffffff1663150b7a023386856040518463ffffffff1660e01b81526004016118e493929190614b15565b6020604051808303816000875af1158015611903573d6000803e3d6000fd5b505050506040513d601f19601f820116820180604052508101906119279190614b74565b7bffffffffffffffffffffffffffffffffffffffffffffffffffffffff191614155b15611980576040517f3da6393100000000000000000000000000000000000000000000000000000000815260040160405180910390fd5b505050565b60006119908261268b565b90506005548211806119a25750600082145b806119d95750600073ffffffffffffffffffffffffffffffffffffffff168173ffffffffffffffffffffffffffffffffffffffff16145b15611a10576040517fc5723b5100000000000000000000000000000000000000000000000000000000815260040160405180910390fd5b919050565b60066020528060005260406000206000915090505481565b611a35612721565b611a3f6000613332565b565b6000808383604051602001611a57929190614ba1565b60405160208183030381529060405280519060200120604051602001611a7d9190614beb565b604051602081830303815290604052805190602001209050611aa285600f54836133f8565b15611ab1576001915050611ab7565b60009150505b9392505050565b6000806107d07f000000000000000000000000000000000000000000000000000000000000000060017f00000000000000000000000000000000000000000000000000000000000000006107d0611b1591906149df565b611b1f91906149ab565b611b27611bb6565b611b319190614aaa565b611b3b9190614a50565b611b459190614a50565b905060008103611b5f5766f8b0a10e470000915050611b88565b662386f26fc1000081611b7291906149df565b66f8b0a10e470000611b849190614aaa565b9150505b90565b600d6020528060005260406000206000915090505481565b600e60009054906101000a900460ff1681565b6000600454905090565b6000801b600f541480611be05750600e60009054906101000a900460ff16155b15611c17576040517f2a47e63200000000000000000000000000000000000000000000000000000000815260040160405180910390fd5b611c2282338361340f565b5050565b6000601160009054906101000a900473ffffffffffffffffffffffffffffffffffffffff16905090565b60038054611c5d90614914565b80601f0160208091040260200160405190810160405280929190818152602001828054611c8990614914565b8015611cd65780601f10611cab57610100808354040283529160200191611cd6565b820191906000526020600020905b815481529060010190602001808311611cb957829003601f168201915b505050505081565b7f000000000000000000000000000000000000000000000000000000000000000081565b600073ffffffffffffffffffffffffffffffffffffffff168273ffffffffffffffffffffffffffffffffffffffff1603611d68576040517fccea9e6f00000000000000000000000000000000000000000000000000000000815260040160405180910390fd5b80600960003373ffffffffffffffffffffffffffffffffffffffff1673ffffffffffffffffffffffffffffffffffffffff16815260200190815260200160002060008473ffffffffffffffffffffffffffffffffffffffff1673ffffffffffffffffffffffffffffffffffffffff16815260200190815260200160002060006101000a81548160ff0219169083151502179055508173ffffffffffffffffffffffffffffffffffffffff163373ffffffffffffffffffffffffffffffffffffffff167f17307eab39ab6107e8899845ad3d59bd9653f200f220920489ca2b5937696c3183604051611e59919061402f565b60405180910390a35050565b600f5481565b60008073ffffffffffffffffffffffffffffffffffffffff168373ffffffffffffffffffffffffffffffffffffffff1603611ed2576040517f9c8d2cd200000000000000000000000000000000000000000000000000000000815260040160405180910390fd5b611edd338484612c80565b905092915050565b6060600b60008373ffffffffffffffffffffffffffffffffffffffff1673ffffffffffffffffffffffffffffffffffffffff168152602001908152602001600020805480602002602001604051908101604052809291908181526020018280548015611f7057602002820191906000526020600020905b815481526020019060010190808311611f5c575b50505050509050919050565b6000600b60008373ffffffffffffffffffffffffffffffffffffffff1673ffffffffffffffffffffffffffffffffffffffff168152602001908152602001600020805490509050919050565b611fd3858585611011565b5060008473ffffffffffffffffffffffffffffffffffffffff163b141580156120c4575063150b7a0260e01b7bffffffffffffffffffffffffffffffffffffffffffffffffffffffff19168473ffffffffffffffffffffffffffffffffffffffff1663150b7a0233888787876040518663ffffffff1660e01b815260040161205f959493929190614c42565b6020604051808303816000875af115801561207e573d6000803e3d6000fd5b505050506040513d601f19601f820116820180604052508101906120a29190614b74565b7bffffffffffffffffffffffffffffffffffffffffffffffffffffffff191614155b156120fb576040517f3da6393100000000000000000000000000000000000000000000000000000000815260040160405180910390fd5b5050505050565b6000600554905090565b612114612721565b61211e8282613531565b5050565b606061212d826135f9565b60405160200161213d9190614cf2565b6040516020818303038152906040529050919050565b4284101561218d576040517f05787bdf00000000000000000000000000000000000000000000000000000000815260040160405180910390fd5b600554851115801561219f5750600085115b156121d6576040517f1f3e0de800000000000000000000000000000000000000000000000000000000815260040160405180910390fd5b600073ffffffffffffffffffffffffffffffffffffffff168673ffffffffffffffffffffffffffffffffffffffff160361223c576040517f5461585f00000000000000000000000000000000000000000000000000000000815260040160405180910390fd5b600060016122486117f4565b7f6e71edae12b1b97f4d1f60370fef10105fa2faae0126114a169c64845d6126c98a8a8a600d60008f73ffffffffffffffffffffffffffffffffffffffff1673ffffffffffffffffffffffffffffffffffffffff1681526020019081526020016000206000815480929190600101919050558b6040516020016122d096959493929190614d18565b604051602081830303815290604052805190602001206040516020016122f7929190614dc5565b604051602081830303815290604052805190602001208585856040516000815260200160405260405161232d9493929190614dfc565b6020604051602081039080840390855afa15801561234f573d6000803e3d6000fd5b505050602060405103519050600073ffffffffffffffffffffffffffffffffffffffff168173ffffffffffffffffffffffffffffffffffffffff1614806123c257508773ffffffffffffffffffffffffffffffffffffffff168173ffffffffffffffffffffffffffffffffffffffff1614155b156123f9576040517f815e1d6400000000000000000000000000000000000000000000000000000000815260040160405180910390fd5b85600760008373ffffffffffffffffffffffffffffffffffffffff1673ffffffffffffffffffffffffffffffffffffffff16815260200190815260200160002060008973ffffffffffffffffffffffffffffffffffffffff1673ffffffffffffffffffffffffffffffffffffffff16815260200190815260200160002081905550507f1f01303a1ce9329d9963e1937c201e23c5543a9e3536e9edead087aec7dc6d838787876040516124ae93929190614945565b60405180910390a150505050505050565b6007602052816000526040600020602052806000526040600020600091509150505481565b60096020528160005260406000206020528060005260406000206000915091509054906101000a900460ff1681565b61251b612721565b600073ffffffffffffffffffffffffffffffffffffffff168173ffffffffffffffffffffffffffffffffffffffff160361258d5760006040517f1e4fbdf70000000000000000000000000000000000000000000000000000000081526004016125849190614223565b60405180910390fd5b61259681613332565b50565b6125a1612721565b478111156125e4576040517f08c379a00000000000000000000000000000000000000000000000000000000081526004016125db90614e8d565b60405180910390fd5b8173ffffffffffffffffffffffffffffffffffffffff166108fc829081150290604051600060405180830381858888f1935050505015801561262a573d6000803e3d6000fd5b505050565b60106020528060005260406000206000915054906101000a900460ff1681565b62030d4081565b60007f00000000000000000000000000000000000000000000000000000000000000006014546126869190614a50565b905090565b600080600a600084815260200190815260200160002054905073ffffffffffffffffffffffffffffffffffffffff8116915050919050565b60008160000160009054906101000a90046fffffffffffffffffffffffffffffffff168260000160109054906101000a90046fffffffffffffffffffffffffffffffff16036fffffffffffffffffffffffffffffffff169050919050565b6127296136c7565b73ffffffffffffffffffffffffffffffffffffffff16612747611c26565b73ffffffffffffffffffffffffffffffffffffffff16146127a65761276a6136c7565b6040517f118cdaa700000000000000000000000000000000000000000000000000000000815260040161279d9190614223565b60405180910390fd5b565b600073ffffffffffffffffffffffffffffffffffffffff168373ffffffffffffffffffffffffffffffffffffffff16036127fa5780600460008282546127ee9190614aaa565b92505081905550612851565b80600660008573ffffffffffffffffffffffffffffffffffffffff1673ffffffffffffffffffffffffffffffffffffffff168152602001908152602001600020600082825461284991906149ab565b925050819055505b80600660008473ffffffffffffffffffffffffffffffffffffffff1673ffffffffffffffffffffffffffffffffffffffff168152602001908152602001600020600082825401925050819055508173ffffffffffffffffffffffffffffffffffffffff168373ffffffffffffffffffffffffffffffffffffffff167fe59fdd36d0d223c0c7d996db7ad796880f45e1936cb0bb7ac102e7082e031487836040516128fb91906140ee565b60405180910390a3505050565b600073ffffffffffffffffffffffffffffffffffffffff168373ffffffffffffffffffffffffffffffffffffffff1614612b07576008600082815260200190815260200160002060006101000a81549073ffffffffffffffffffffffffffffffffffffffff02191690556000600b60008573ffffffffffffffffffffffffffffffffffffffff1673ffffffffffffffffffffffffffffffffffffffff1681526020019081526020016000206001600b60008773ffffffffffffffffffffffffffffffffffffffff1673ffffffffffffffffffffffffffffffffffffffff16815260200190815260200160002080549050612a0291906149ab565b81548110612a1357612a12614ead565b5b90600052602060002001549050818114612aa0576000612a32836136cf565b905081600b60008773ffffffffffffffffffffffffffffffffffffffff1673ffffffffffffffffffffffffffffffffffffffff1681526020019081526020016000208281548110612a8657612a85614ead565b5b9060005260206000200181905550612a9e82826136f4565b505b600b60008573ffffffffffffffffffffffffffffffffffffffff1673ffffffffffffffffffffffffffffffffffffffff168152602001908152602001600020805480612aef57612aee614edc565b5b60019003818190600052602060002001600090559055505b600073ffffffffffffffffffffffffffffffffffffffff168273ffffffffffffffffffffffffffffffffffffffff1614612c0857612b4581836137c7565b600b60008373ffffffffffffffffffffffffffffffffffffffff1673ffffffffffffffffffffffffffffffffffffffff168152602001908152602001600020819080600181540180825580915050600190039060005260206000200160009091909190915055612c03816001600b60008673ffffffffffffffffffffffffffffffffffffffff1673ffffffffffffffffffffffffffffffffffffffff16815260200190815260200160002080549050612bfe91906149ab565b6136f4565b612c20565b600a6000828152602001908152602001600020600090555b808273ffffffffffffffffffffffffffffffffffffffff168473ffffffffffffffffffffffffffffffffffffffff167fe5f815dc84b8cecdfd4beedfc3f91ab5be7af100eca4e8fb11552b867995394f60405160405180910390a4505050565b600080612c8c85610b9f565b90506000612c9985610b9f565b9050612ca68686866127a8565b6000600c60008873ffffffffffffffffffffffffffffffffffffffff1673ffffffffffffffffffffffffffffffffffffffff16815260200190815260200160002060009054906101000a900460ff1690506000600c60008873ffffffffffffffffffffffffffffffffffffffff1673ffffffffffffffffffffffffffffffffffffffff16815260200190815260200160002060009054906101000a900460ff169050818015612d525750805b613120578115612e295760007f000000000000000000000000000000000000000000000000000000000000000084612d8a9190614a50565b7f0000000000000000000000000000000000000000000000000000000000000000600660008b73ffffffffffffffffffffffffffffffffffffffff1673ffffffffffffffffffffffffffffffffffffffff16815260200190815260200160002054612df59190614a50565b612dff91906149ab565b905060005b81811015612e2257612e1589613839565b8080600101915050612e04565b505061311f565b8015612efc5760007f0000000000000000000000000000000000000000000000000000000000000000600660008b73ffffffffffffffffffffffffffffffffffffffff1673ffffffffffffffffffffffffffffffffffffffff16815260200190815260200160002054612e9c9190614a50565b7f000000000000000000000000000000000000000000000000000000000000000086612ec89190614a50565b612ed291906149ab565b905060005b81811015612ef557612ee88a613961565b8080600101915050612ed7565b505061311e565b60007f000000000000000000000000000000000000000000000000000000000000000087612f2a9190614a50565b905060005b818110156130045760006001600b60008d73ffffffffffffffffffffffffffffffffffffffff1673ffffffffffffffffffffffffffffffffffffffff16815260200190815260200160002080549050612f8891906149ab565b90506000600b60008d73ffffffffffffffffffffffffffffffffffffffff1673ffffffffffffffffffffffffffffffffffffffff1681526020019081526020016000208281548110612fdd57612fdc614ead565b5b90600052602060002001549050612ff58c8c83612908565b82806001019350505050612f2f565b5060007f0000000000000000000000000000000000000000000000000000000000000000886130339190614f0b565b90507f0000000000000000000000000000000000000000000000000000000000000000866130619190614a50565b7f0000000000000000000000000000000000000000000000000000000000000000828861308e91906149ab565b6130989190614a50565b10156130a8576130a78a613961565b5b7f0000000000000000000000000000000000000000000000000000000000000000856130d49190614a50565b7f000000000000000000000000000000000000000000000000000000000000000082876131019190614aaa565b61310b9190614a50565b111561311b5761311a89613839565b5b50505b5b5b60019450505050509392505050565b60026012540361316b576040517f3ee5aeb500000000000000000000000000000000000000000000000000000000815260040160405180910390fd5b6002601281905550565b600073ffffffffffffffffffffffffffffffffffffffff168373ffffffffffffffffffffffffffffffffffffffff16036131db576040517f9c8d2cd200000000000000000000000000000000000000000000000000000000815260040160405180910390fd5b6131e7600084846127a8565b80801561323e5750600c60008473ffffffffffffffffffffffffffffffffffffffff1673ffffffffffffffffffffffffffffffffffffffff16815260200190815260200160002060009054906101000a900460ff16155b156132975760007f0000000000000000000000000000000000000000000000000000000000000000836132719190614a50565b905060005b818110156132945761328785613839565b8080600101915050613276565b50505b505050565b6001601281905550565b60007f8b73c3c69bb8fe3d512ecc4cf759cc79239f7b179b0ffacaa9a75d522b39400f60026040516132d89190614fdf565b60405180910390207fc89efdaa54c0f20c7adf612882df0950f5a951637e0307cdcb4c672f298b8bc64630604051602001613317959493929190614ff6565b60405160208183030381529060405280519060200120905090565b6000601160009054906101000a900473ffffffffffffffffffffffffffffffffffffffff16905081601160006101000a81548173ffffffffffffffffffffffffffffffffffffffff021916908373ffffffffffffffffffffffffffffffffffffffff1602179055508173ffffffffffffffffffffffffffffffffffffffff168173ffffffffffffffffffffffffffffffffffffffff167f8be0079c531659141344cd1fd0a4f28419497f9722a3daafe3b4186f6b6457e060405160405180910390a35050565b6000826134058584613a99565b1490509392505050565b61341a838383611a41565b613450576040517f7745886e00000000000000000000000000000000000000000000000000000000815260040160405180910390fd5b601060008373ffffffffffffffffffffffffffffffffffffffff1673ffffffffffffffffffffffffffffffffffffffff16815260200190815260200160002060009054906101000a900460ff16156134d4576040517fe4ca4c0b00000000000000000000000000000000000000000000000000000000815260040160405180910390fd5b6001601060008473ffffffffffffffffffffffffffffffffffffffff1673ffffffffffffffffffffffffffffffffffffffff16815260200190815260200160002060006101000a81548160ff021916908315150217905550505050565b7f000000000000000000000000000000000000000000000000000000000000000061355b83610b9f565b10158015613567575080155b1561359e576040517f3908ab3c00000000000000000000000000000000000000000000000000000000815260040160405180910390fd5b80600c60008473ffffffffffffffffffffffffffffffffffffffff1673ffffffffffffffffffffffffffffffffffffffff16815260200190815260200160002060006101000a81548160ff0219169083151502179055505050565b60606000600161360884613aef565b01905060008167ffffffffffffffff8111156136275761362661439a565b5b6040519080825280601f01601f1916602001820160405280156136595781602001600182028036833780820191505090505b509050600082602001820190505b6001156136bc578080600190039150507f3031323334353637383961626364656600000000000000000000000000000000600a86061a8153600a85816136b0576136af614a21565b5b04945060008503613667575b819350505050919050565b600033905090565b600080600a60008481526020019081526020016000205490508060a01c915050919050565b6000600a600084815260200190815260200160002054905060a07fffffffffffffffffffffffff0000000000000000000000000000000000000000901c82111561376a576040517ffcb3438c00000000000000000000000000000000000000000000000000000000815260040160405180910390fd5b7fffffffffffffffffffffffff00000000000000000000000000000000000000008260a01b1673ffffffffffffffffffffffffffffffffffffffff821601905080600a600085815260200190815260200160002081905550505050565b6000600a600084815260200190815260200160002054905073ffffffffffffffffffffffffffffffffffffffff82167fffffffffffffffffffffffff0000000000000000000000000000000000000000821601905080600a600085815260200190815260200160002081905550505050565b600073ffffffffffffffffffffffffffffffffffffffff168173ffffffffffffffffffffffffffffffffffffffff160361389f576040517f9c8d2cd200000000000000000000000000000000000000000000000000000000815260040160405180910390fd5b60006138ab6000613c42565b6138c0576138b96000613cb2565b90506138de565b600560008154809291906138d390615049565b919050555060055490505b60006138e98261268b565b9050600073ffffffffffffffffffffffffffffffffffffffff168173ffffffffffffffffffffffffffffffffffffffff1614613951576040517f23369fa600000000000000000000000000000000000000000000000000000000815260040160405180910390fd5b61395c818484612908565b505050565b600073ffffffffffffffffffffffffffffffffffffffff168173ffffffffffffffffffffffffffffffffffffffff16036139c7576040517fddb5de5e00000000000000000000000000000000000000000000000000000000815260040160405180910390fd5b6000600b60008373ffffffffffffffffffffffffffffffffffffffff1673ffffffffffffffffffffffffffffffffffffffff1681526020019081526020016000206001600b60008573ffffffffffffffffffffffffffffffffffffffff1673ffffffffffffffffffffffffffffffffffffffff16815260200190815260200160002080549050613a5791906149ab565b81548110613a6857613a67614ead565b5b90600052602060002001549050613a8182600083612908565b613a95816000613e1690919063ffffffff16565b5050565b60008082905060005b8451811015613ae457613acf82868381518110613ac257613ac1614ead565b5b6020026020010151613f39565b91508080613adc90615049565b915050613aa2565b508091505092915050565b600080600090507a184f03e93ff9f4daa797ed6e38ed64bf6a1f0100000000000000008310613b4d577a184f03e93ff9f4daa797ed6e38ed64bf6a1f0100000000000000008381613b4357613b42614a21565b5b0492506040810190505b6d04ee2d6d415b85acef81000000008310613b8a576d04ee2d6d415b85acef81000000008381613b8057613b7f614a21565b5b0492506020810190505b662386f26fc100008310613bb957662386f26fc100008381613baf57613bae614a21565b5b0492506010810190505b6305f5e1008310613be2576305f5e1008381613bd857613bd7614a21565b5b0492506008810190505b6127108310613c07576127108381613bfd57613bfc614a21565b5b0492506004810190505b60648310613c2a5760648381613c2057613c1f614a21565b5b0492506002810190505b600a8310613c39576001810190505b80915050919050565b60008160000160009054906101000a90046fffffffffffffffffffffffffffffffff166fffffffffffffffffffffffffffffffff168260000160109054906101000a90046fffffffffffffffffffffffffffffffff166fffffffffffffffffffffffffffffffff16149050919050565b6000808260000160109054906101000a90046fffffffffffffffffffffffffffffffff1690508260000160009054906101000a90046fffffffffffffffffffffffffffffffff166fffffffffffffffffffffffffffffffff16816fffffffffffffffffffffffffffffffff1603613d55576040517f75e52f4f00000000000000000000000000000000000000000000000000000000815260040160405180910390fd5b80600190039050826001016000826fffffffffffffffffffffffffffffffff166fffffffffffffffffffffffffffffffff168152602001908152602001600020549150826001016000826fffffffffffffffffffffffffffffffff166fffffffffffffffffffffffffffffffff16815260200190815260200160002060009055808360000160106101000a8154816fffffffffffffffffffffffffffffffff02191690836fffffffffffffffffffffffffffffffff16021790555050919050565b600060018360000160009054906101000a90046fffffffffffffffffffffffffffffffff160390508260000160109054906101000a90046fffffffffffffffffffffffffffffffff166fffffffffffffffffffffffffffffffff16816fffffffffffffffffffffffffffffffff1603613ebb576040517f8acb5f2700000000000000000000000000000000000000000000000000000000815260040160405180910390fd5b81836001016000836fffffffffffffffffffffffffffffffff166fffffffffffffffffffffffffffffffff16815260200190815260200160002081905550808360000160006101000a8154816fffffffffffffffffffffffffffffffff02191690836fffffffffffffffffffffffffffffffff160217905550505050565b6000818310613f5157613f4c8284613f64565b613f5c565b613f5b8383613f64565b5b905092915050565b600082600052816020526040600020905092915050565b6000604051905090565b600080fd5b600080fd5b60007fffffffff0000000000000000000000000000000000000000000000000000000082169050919050565b613fc481613f8f565b8114613fcf57600080fd5b50565b600081359050613fe181613fbb565b92915050565b600060208284031215613ffd57613ffc613f85565b5b600061400b84828501613fd2565b91505092915050565b60008115159050919050565b61402981614014565b82525050565b60006020820190506140446000830184614020565b92915050565b600073ffffffffffffffffffffffffffffffffffffffff82169050919050565b60006140758261404a565b9050919050565b6140858161406a565b811461409057600080fd5b50565b6000813590506140a28161407c565b92915050565b6000602082840312156140be576140bd613f85565b5b60006140cc84828501614093565b91505092915050565b6000819050919050565b6140e8816140d5565b82525050565b600060208201905061410360008301846140df565b92915050565b600081519050919050565b600082825260208201905092915050565b60005b83811015614143578082015181840152602081019050614128565b60008484015250505050565b6000601f19601f8301169050919050565b600061416b82614109565b6141758185614114565b9350614185818560208601614125565b61418e8161414f565b840191505092915050565b600060208201905081810360008301526141b38184614160565b905092915050565b6141c4816140d5565b81146141cf57600080fd5b50565b6000813590506141e1816141bb565b92915050565b6000602082840312156141fd576141fc613f85565b5b600061420b848285016141d2565b91505092915050565b61421d8161406a565b82525050565b60006020820190506142386000830184614214565b92915050565b6000806040838503121561425557614254613f85565b5b600061426385828601614093565b9250506020614274858286016141d2565b9150509250929050565b61428781614014565b811461429257600080fd5b50565b6000813590506142a48161427e565b92915050565b6000602082840312156142c0576142bf613f85565b5b60006142ce84828501614295565b91505092915050565b6000806000606084860312156142f0576142ef613f85565b5b60006142fe86828701614093565b935050602061430f86828701614093565b9250506040614320868287016141d2565b9150509250925092565b600060ff82169050919050565b6143408161432a565b82525050565b600060208201905061435b6000830184614337565b92915050565b6000819050919050565b61437481614361565b82525050565b600060208201905061438f600083018461436b565b92915050565b600080fd5b7f4e487b7100000000000000000000000000000000000000000000000000000000600052604160045260246000fd5b6143d28261414f565b810181811067ffffffffffffffff821117156143f1576143f061439a565b5b80604052505050565b6000614404613f7b565b905061441082826143c9565b919050565b600067ffffffffffffffff8211156144305761442f61439a565b5b602082029050602081019050919050565b600080fd5b61444f81614361565b811461445a57600080fd5b50565b60008135905061446c81614446565b92915050565b600061448561448084614415565b6143fa565b905080838252602082019050602084028301858111156144a8576144a7614441565b5b835b818110156144d157806144bd888261445d565b8452602084019350506020810190506144aa565b5050509392505050565b600082601f8301126144f0576144ef614395565b5b8135614500848260208601614472565b91505092915050565b60008060006060848603121561452257614521613f85565b5b600084013567ffffffffffffffff8111156145405761453f613f8a565b5b61454c868287016144db565b935050602061455d86828701614093565b925050604061456e868287016141d2565b9150509250925092565b6000806040838503121561458f5761458e613f85565b5b600083013567ffffffffffffffff8111156145ad576145ac613f8a565b5b6145b9858286016144db565b92505060206145ca858286016141d2565b9150509250929050565b600080604083850312156145eb576145ea613f85565b5b60006145f985828601614093565b925050602061460a85828601614295565b9150509250929050565b600081519050919050565b600082825260208201905092915050565b6000819050602082019050919050565b614649816140d5565b82525050565b600061465b8383614640565b60208301905092915050565b6000602082019050919050565b600061467f82614614565b614689818561461f565b935061469483614630565b8060005b838110156146c55781516146ac888261464f565b97506146b783614667565b925050600181019050614698565b5085935050505092915050565b600060208201905081810360008301526146ec8184614674565b905092915050565b600080fd5b60008083601f84011261470f5761470e614395565b5b8235905067ffffffffffffffff81111561472c5761472b6146f4565b5b60208301915083600182028301111561474857614747614441565b5b9250929050565b60008060008060006080868803121561476b5761476a613f85565b5b600061477988828901614093565b955050602061478a88828901614093565b945050604061479b888289016141d2565b935050606086013567ffffffffffffffff8111156147bc576147bb613f8a565b5b6147c8888289016146f9565b92509250509295509295909350565b6147e08161432a565b81146147eb57600080fd5b50565b6000813590506147fd816147d7565b92915050565b600080600080600080600060e0888a03121561482257614821613f85565b5b60006148308a828b01614093565b97505060206148418a828b01614093565b96505060406148528a828b016141d2565b95505060606148638a828b016141d2565b94505060806148748a828b016147ee565b93505060a06148858a828b0161445d565b92505060c06148968a828b0161445d565b91505092959891949750929550565b600080604083850312156148bc576148bb613f85565b5b60006148ca85828601614093565b92505060206148db85828601614093565b9150509250929050565b7f4e487b7100000000000000000000000000000000000000000000000000000000600052602260045260246000fd5b6000600282049050600182168061492c57607f821691505b60208210810361493f5761493e6148e5565b5b50919050565b600060608201905061495a6000830186614214565b6149676020830185614214565b61497460408301846140df565b949350505050565b7f4e487b7100000000000000000000000000000000000000000000000000000000600052601160045260246000fd5b60006149b6826140d5565b91506149c1836140d5565b92508282039050818111156149d9576149d861497c565b5b92915050565b60006149ea826140d5565b91506149f5836140d5565b9250828202614a03816140d5565b91508282048414831517614a1a57614a1961497c565b5b5092915050565b7f4e487b7100000000000000000000000000000000000000000000000000000000600052601260045260246000fd5b6000614a5b826140d5565b9150614a66836140d5565b925082614a7657614a75614a21565b5b828204905092915050565b6000604082019050614a9660008301856140df565b614aa360208301846140df565b9392505050565b6000614ab5826140d5565b9150614ac0836140d5565b9250828201905080821115614ad857614ad761497c565b5b92915050565b600082825260208201905092915050565b50565b6000614aff600083614ade565b9150614b0a82614aef565b600082019050919050565b6000608082019050614b2a6000830186614214565b614b376020830185614214565b614b4460408301846140df565b8181036060830152614b5581614af2565b9050949350505050565b600081519050614b6e81613fbb565b92915050565b600060208284031215614b8a57614b89613f85565b5b6000614b9884828501614b5f565b91505092915050565b6000604082019050614bb66000830185614214565b614bc360208301846140df565b9392505050565b6000819050919050565b614be5614be082614361565b614bca565b82525050565b6000614bf78284614bd4565b60208201915081905092915050565b82818337600083830152505050565b6000614c218385614ade565b9350614c2e838584614c06565b614c378361414f565b840190509392505050565b6000608082019050614c576000830188614214565b614c646020830187614214565b614c7160408301866140df565b8181036060830152614c84818486614c15565b90509695505050505050565b7f68747470733a2f2f6578616d706c652e636f6d2f746f6b656e2f000000000000815250565b600081905092915050565b6000614ccc82614109565b614cd68185614cb6565b9350614ce6818560208601614125565b80840191505092915050565b6000614cfd82614c90565b601a82019150614d0d8284614cc1565b915081905092915050565b600060c082019050614d2d600083018961436b565b614d3a6020830188614214565b614d476040830187614214565b614d5460608301866140df565b614d6160808301856140df565b614d6e60a08301846140df565b979650505050505050565b7f1901000000000000000000000000000000000000000000000000000000000000600082015250565b6000614daf600283614cb6565b9150614dba82614d79565b600282019050919050565b6000614dd082614da2565b9150614ddc8285614bd4565b602082019150614dec8284614bd4565b6020820191508190509392505050565b6000608082019050614e11600083018761436b565b614e1e6020830186614337565b614e2b604083018561436b565b614e38606083018461436b565b95945050505050565b7f696e73756666696369656e742062616c616e636520696e20636f6e7472616374600082015250565b6000614e77602083614114565b9150614e8282614e41565b602082019050919050565b60006020820190508181036000830152614ea681614e6a565b9050919050565b7f4e487b7100000000000000000000000000000000000000000000000000000000600052603260045260246000fd5b7f4e487b7100000000000000000000000000000000000000000000000000000000600052603160045260246000fd5b6000614f16826140d5565b9150614f21836140d5565b925082614f3157614f30614a21565b5b828206905092915050565b600081905092915050565b60008190508160005260206000209050919050565b60008154614f6981614914565b614f738186614f3c565b94506001821660008114614f8e5760018114614fa357614fd6565b60ff1983168652811515820286019350614fd6565b614fac85614f47565b60005b83811015614fce57815481890152600182019150602081019050614faf565b838801955050505b50505092915050565b6000614feb8284614f5c565b915081905092915050565b600060a08201905061500b600083018861436b565b615018602083018761436b565b615025604083018661436b565b61503260608301856140df565b61503f6080830184614214565b9695505050505050565b6000615054826140d5565b91507fffffffffffffffffffffffffffffffffffffffffffffffffffffffffffffffff82036150865761508561497c565b5b60018201905091905056fea26469706673582212205ccab136028f704ff4f593b384be4c515e52c283db709d4b0b4e8b3d6e44368164736f6c63430008140033",
  "linkReferences": {},
  "deployedLinkReferences": {}
}