{
  "_format": "hh-sol-artifact-1",
  "contractName": "Fof",
  "sourceName": "contracts/Fof.sol",
  "abi": [
    {
      "inputs": [
        {
          "internalType": "string",
          "name": "name",
          "type": "string"
        },
        {
          "internalType": "string",
          "name": "symbol",
          "type": "string"
        },
        {
          "internalType": "uint8",
          "name": "decimals",
          "type": "uint8"
        },
        {
          "internalType": "address",
          "name": "initialOwner",
          "type": "address"
        },
        {
          "internalType": "address",
          "name": "initialMintRecipient",
          "type": "address"
        }
      ],
      "stateMutability": "nonpayable",
      "type": "constructor"
    },
    {
      "inputs": [],
      "name": "AirdropAlreadyClaimed",
      "type": "error"
    },
    {
      "inputs": [],
      "name": "AirdropIsClosed",
      "type": "error"
    },
    {
      "inputs": [],
      "name": "AlreadyExists",
      "type": "error"
    },
    {
      "inputs": [],
      "name": "CannotRemoveFromERC721TransferExempt",
      "type": "error"
    },
    {
      "inputs": [],
      "name": "DecimalsTooLow",
      "type": "error"
    },
    {
      "inputs": [
        {
          "internalType": "uint256",
          "name": "requested",
          "type": "uint256"
        },
        {
          "internalType": "uint256",
          "name": "maxSizeAtOneTime",
          "type": "uint256"
        }
      ],
      "name": "ExceedsMaxSizeAtOneTime",
      "type": "error"
    },
    {
      "inputs": [
        {
          "internalType": "uint256",
          "name": "requested",
          "type": "uint256"
        },
        {
          "internalType": "uint256",
          "name": "remaining",
          "type": "uint256"
        }
      ],
      "name": "ExceedsMaxSupply",
      "type": "error"
    },
    {
      "inputs": [],
      "name": "InsufficientAllowance",
      "type": "error"
    },
    {
      "inputs": [
        {
          "internalType": "uint256",
          "name": "required",
          "type": "uint256"
        },
        {
          "internalType": "uint256",
          "name": "sent",
          "type": "uint256"
        }
      ],
      "name": "InsufficientEther",
      "type": "error"
    },
    {
      "inputs": [],
      "name": "InvalidApproval",
      "type": "error"
    },
    {
      "inputs": [],
      "name": "InvalidId",
      "type": "error"
    },
    {
      "inputs": [],
      "name": "InvalidOperator",
      "type": "error"
    },
    {
      "inputs": [],
      "name": "InvalidRecipient",
      "type": "error"
    },
    {
      "inputs": [],
      "name": "InvalidSender",
      "type": "error"
    },
    {
      "inputs": [],
      "name": "InvalidSigner",
      "type": "error"
    },
    {
      "inputs": [],
      "name": "InvalidSpender",
      "type": "error"
    },
    {
      "inputs": [],
      "name": "NotEligibleForAirdrop",
      "type": "error"
    },
    {
      "inputs": [],
      "name": "NotFound",
      "type": "error"
    },
    {
      "inputs": [
        {
          "internalType": "address",
          "name": "owner",
          "type": "address"
        }
      ],
      "name": "OwnableInvalidOwner",
      "type": "error"
    },
    {
      "inputs": [
        {
          "internalType": "address",
          "name": "account",
          "type": "address"
        }
      ],
      "name": "OwnableUnauthorizedAccount",
      "type": "error"
    },
    {
      "inputs": [],
      "name": "OwnedIndexOverflow",
      "type": "error"
    },
    {
      "inputs": [],
      "name": "PermitDeadlineExpired",
      "type": "error"
    },
    {
      "inputs": [],
      "name": "PublicMintNotActive",
      "type": "error"
    },
    {
      "inputs": [],
      "name": "QueueEmpty",
      "type": "error"
    },
    {
      "inputs": [],
      "name": "QueueFull",
      "type": "error"
    },
    {
      "inputs": [],
      "name": "RecipientIsERC721TransferExempt",
      "type": "error"
    },
    {
      "inputs": [],
      "name": "ReentrancyGuardReentrantCall",
      "type": "error"
    },
    {
      "inputs": [],
      "name": "SenderIsERC721TransferExempt",
      "type": "error"
    },
    {
      "inputs": [],
      "name": "Unauthorized",
      "type": "error"
    },
    {
      "inputs": [],
      "name": "UnsafeRecipient",
      "type": "error"
    },
    {
      "anonymous": false,
      "inputs": [
        {
          "indexed": true,
          "internalType": "address",
          "name": "owner",
          "type": "address"
        },
        {
          "indexed": true,
          "internalType": "address",
          "name": "operator",
          "type": "address"
        },
        {
          "indexed": false,
          "internalType": "bool",
          "name": "approved",
          "type": "bool"
        }
      ],
      "name": "ApprovalForAll",
      "type": "event"
    },
    {
      "anonymous": false,
      "inputs": [
        {
          "indexed": false,
          "internalType": "address",
          "name": "owner",
          "type": "address"
        },
        {
          "indexed": false,
          "internalType": "address",
          "name": "spender",
          "type": "address"
        },
        {
          "indexed": false,
          "internalType": "uint256",
          "name": "value",
          "type": "uint256"
        }
      ],
      "name": "ERC20Approval",
      "type": "event"
    },
    {
      "anonymous": false,
      "inputs": [
        {
          "indexed": true,
          "internalType": "address",
          "name": "from",
          "type": "address"
        },
        {
          "indexed": true,
          "internalType": "address",
          "name": "to",
          "type": "address"
        },
        {
          "indexed": false,
          "internalType": "uint256",
          "name": "amount",
          "type": "uint256"
        }
      ],
      "name": "ERC20Transfer",
      "type": "event"
    },
    {
      "anonymous": false,
      "inputs": [
        {
          "indexed": true,
          "internalType": "address",
          "name": "owner",
          "type": "address"
        },
        {
          "indexed": true,
          "internalType": "address",
          "name": "spender",
          "type": "address"
        },
        {
          "indexed": true,
          "internalType": "uint256",
          "name": "id",
          "type": "uint256"
        }
      ],
      "name": "ERC721Approval",
      "type": "event"
    },
    {
      "anonymous": false,
      "inputs": [
        {
          "indexed": true,
          "internalType": "address",
          "name": "from",
          "type": "address"
        },
        {
          "indexed": true,
          "internalType": "address",
          "name": "to",
          "type": "address"
        },
        {
          "indexed": true,
          "internalType": "uint256",
          "name": "id",
          "type": "uint256"
        }
      ],
      "name": "ERC721Transfer",
      "type": "event"
    },
    {
      "anonymous": false,
      "inputs": [
        {
          "indexed": true,
          "internalType": "address",
          "name": "previousOwner",
          "type": "address"
        },
        {
          "indexed": true,
          "internalType": "address",
          "name": "newOwner",
          "type": "address"
        }
      ],
      "name": "OwnershipTransferred",
      "type": "event"
    },
    {
      "inputs": [],
      "name": "BASE_URI",
      "outputs": [
        {
          "internalType": "string",
          "name": "",
          "type": "string"
        }
      ],
      "stateMutability": "view",
      "type": "function"
    },
    {
      "inputs": [],
      "name": "DOMAIN_SEPARATOR",
      "outputs": [
        {
          "internalType": "bytes32",
          "name": "",
          "type": "bytes32"
        }
      ],
      "stateMutability": "view",
      "type": "function"
    },
    {
      "inputs": [],
      "name": "MAX_FOF_ERC721",
      "outputs": [
        {
          "internalType": "uint256",
          "name": "",
          "type": "uint256"
        }
      ],
      "stateMutability": "view",
      "type": "function"
    },
    {
      "inputs": [],
      "name": "MAX_SIZE_AT_ONE_TIME",
      "outputs": [
        {
          "internalType": "uint256",
          "name": "",
          "type": "uint256"
        }
      ],
      "stateMutability": "view",
      "type": "function"
    },
    {
      "inputs": [],
      "name": "airdropIsOpen",
      "outputs": [
        {
          "internalType": "bool",
          "name": "",
          "type": "bool"
        }
      ],
      "stateMutability": "view",
      "type": "function"
    },
    {
      "inputs": [],
      "name": "airdropMerkleRoot",
      "outputs": [
        {
          "internalType": "bytes32",
          "name": "",
          "type": "bytes32"
        }
      ],
      "stateMutability": "view",
      "type": "function"
    },
    {
      "inputs": [
        {
          "internalType": "bytes32[]",
          "name": "proof_",
          "type": "bytes32[]"
        },
        {
          "internalType": "uint256",
          "name": "value_",
          "type": "uint256"
        }
      ],
      "name": "airdropMint",
      "outputs": [],
      "stateMutability": "nonpayable",
      "type": "function"
    },
    {
      "inputs": [
        {
          "internalType": "address",
          "name": "",
          "type": "address"
        },
        {
          "internalType": "address",
          "name": "",
          "type": "address"
        }
      ],
      "name": "allowance",
      "outputs": [
        {
          "internalType": "uint256",
          "name": "",
          "type": "uint256"
        }
      ],
      "stateMutability": "view",
      "type": "function"
    },
    {
      "inputs": [
        {
          "internalType": "address",
          "name": "spender_",
          "type": "address"
        },
        {
          "internalType": "uint256",
          "name": "valueOrId_",
          "type": "uint256"
        }
      ],
      "name": "approve",
      "outputs": [
        {
          "internalType": "bool",
          "name": "",
          "type": "bool"
        }
      ],
      "stateMutability": "nonpayable",
      "type": "function"
    },
    {
      "inputs": [
        {
          "internalType": "address",
          "name": "",
          "type": "address"
        }
      ],
      "name": "balanceOf",
      "outputs": [
        {
          "internalType": "uint256",
          "name": "",
          "type": "uint256"
        }
      ],
      "stateMutability": "view",
      "type": "function"
    },
    {
      "inputs": [],
      "name": "decimals",
      "outputs": [
        {
          "internalType": "uint8",
          "name": "",
          "type": "uint8"
        }
      ],
      "stateMutability": "view",
      "type": "function"
    },
    {
      "inputs": [
        {
          "internalType": "address",
          "name": "owner_",
          "type": "address"
        }
      ],
      "name": "erc20BalanceOf",
      "outputs": [
        {
          "internalType": "uint256",
          "name": "",
          "type": "uint256"
        }
      ],
      "stateMutability": "view",
      "type": "function"
    },
    {
      "inputs": [],
      "name": "erc20TotalSupply",
      "outputs": [
        {
          "internalType": "uint256",
          "name": "",
          "type": "uint256"
        }
      ],
      "stateMutability": "view",
      "type": "function"
    },
    {
      "inputs": [
        {
          "internalType": "address",
          "name": "owner_",
          "type": "address"
        }
      ],
      "name": "erc721BalanceOf",
      "outputs": [
        {
          "internalType": "uint256",
          "name": "",
          "type": "uint256"
        }
      ],
      "stateMutability": "view",
      "type": "function"
    },
    {
      "inputs": [],
      "name": "erc721TokensBankedInQueue",
      "outputs": [
        {
          "internalType": "uint256",
          "name": "",
          "type": "uint256"
        }
      ],
      "stateMutability": "view",
      "type": "function"
    },
    {
      "inputs": [],
      "name": "erc721TotalSupply",
      "outputs": [
        {
          "internalType": "uint256",
          "name": "",
          "type": "uint256"
        }
      ],
      "stateMutability": "view",
      "type": "function"
    },
    {
      "inputs": [
        {
          "internalType": "address",
          "name": "",
          "type": "address"
        }
      ],
      "name": "erc721TransferExempt",
      "outputs": [
        {
          "internalType": "bool",
          "name": "",
          "type": "bool"
        }
      ],
      "stateMutability": "view",
      "type": "function"
    },
    {
      "inputs": [
        {
          "internalType": "uint256",
          "name": "",
          "type": "uint256"
        }
      ],
      "name": "getApproved",
      "outputs": [
        {
          "internalType": "address",
          "name": "",
          "type": "address"
        }
      ],
      "stateMutability": "view",
      "type": "function"
    },
    {
      "inputs": [],
      "name": "getPublicMintPrice",
      "outputs": [
        {
          "internalType": "uint256",
          "name": "",
          "type": "uint256"
        }
      ],
      "stateMutability": "view",
      "type": "function"
    },
    {
      "inputs": [
        {
          "internalType": "address",
          "name": "",
          "type": "address"
        }
      ],
      "name": "hasClaimedAirdrop",
      "outputs": [
        {
          "internalType": "bool",
          "name": "",
          "type": "bool"
        }
      ],
      "stateMutability": "view",
      "type": "function"
    },
    {
      "inputs": [
        {
          "internalType": "address",
          "name": "",
          "type": "address"
        },
        {
          "internalType": "address",
          "name": "",
          "type": "address"
        }
      ],
      "name": "isApprovedForAll",
      "outputs": [
        {
          "internalType": "bool",
          "name": "",
          "type": "bool"
        }
      ],
      "stateMutability": "view",
      "type": "function"
    },
    {
      "inputs": [],
      "name": "isPublicMint",
      "outputs": [
        {
          "internalType": "bool",
          "name": "",
          "type": "bool"
        }
      ],
      "stateMutability": "view",
      "type": "function"
    },
    {
      "inputs": [],
      "name": "name",
      "outputs": [
        {
          "internalType": "string",
          "name": "",
          "type": "string"
        }
      ],
      "stateMutability": "view",
      "type": "function"
    },
    {
      "inputs": [
        {
          "internalType": "address",
          "name": "",
          "type": "address"
        }
      ],
      "name": "nonces",
      "outputs": [
        {
          "internalType": "uint256",
          "name": "",
          "type": "uint256"
        }
      ],
      "stateMutability": "view",
      "type": "function"
    },
    {
      "inputs": [
        {
          "internalType": "address",
          "name": "owner_",
          "type": "address"
        }
      ],
      "name": "owned",
      "outputs": [
        {
          "internalType": "uint256[]",
          "name": "",
          "type": "uint256[]"
        }
      ],
      "stateMutability": "view",
      "type": "function"
    },
    {
      "inputs": [],
      "name": "owner",
      "outputs": [
        {
          "internalType": "address",
          "name": "",
          "type": "address"
        }
      ],
      "stateMutability": "view",
      "type": "function"
    },
    {
      "inputs": [
        {
          "internalType": "uint256",
          "name": "id_",
          "type": "uint256"
        }
      ],
      "name": "ownerOf",
      "outputs": [
        {
          "internalType": "address",
          "name": "erc721Owner",
          "type": "address"
        }
      ],
      "stateMutability": "view",
      "type": "function"
    },
    {
      "inputs": [
        {
          "internalType": "address",
          "name": "owner_",
          "type": "address"
        },
        {
          "internalType": "address",
          "name": "spender_",
          "type": "address"
        },
        {
          "internalType": "uint256",
          "name": "value_",
          "type": "uint256"
        },
        {
          "internalType": "uint256",
          "name": "deadline_",
          "type": "uint256"
        },
        {
          "internalType": "uint8",
          "name": "v_",
          "type": "uint8"
        },
        {
          "internalType": "bytes32",
          "name": "r_",
          "type": "bytes32"
        },
        {
          "internalType": "bytes32",
          "name": "s_",
          "type": "bytes32"
        }
      ],
      "name": "permit",
      "outputs": [],
      "stateMutability": "nonpayable",
      "type": "function"
    },
    {
      "inputs": [
        {
          "internalType": "uint256",
          "name": "mintCount",
          "type": "uint256"
        }
      ],
      "name": "publicMint",
      "outputs": [],
      "stateMutability": "payable",
      "type": "function"
    },
    {
      "inputs": [],
      "name": "renounceOwnership",
      "outputs": [],
      "stateMutability": "nonpayable",
      "type": "function"
    },
    {
      "inputs": [
        {
          "internalType": "address",
          "name": "from_",
          "type": "address"
        },
        {
          "internalType": "address",
          "name": "to_",
          "type": "address"
        },
        {
          "internalType": "uint256",
          "name": "id_",
          "type": "uint256"
        }
      ],
      "name": "safeTransferFrom",
      "outputs": [],
      "stateMutability": "nonpayable",
      "type": "function"
    },
    {
      "inputs": [
        {
          "internalType": "address",
          "name": "from_",
          "type": "address"
        },
        {
          "internalType": "address",
          "name": "to_",
          "type": "address"
        },
        {
          "internalType": "uint256",
          "name": "id_",
          "type": "uint256"
        },
        {
          "internalType": "bytes",
          "name": "data_",
          "type": "bytes"
        }
      ],
      "name": "safeTransferFrom",
      "outputs": [],
      "stateMutability": "nonpayable",
      "type": "function"
    },
    {
      "inputs": [
        {
          "internalType": "address",
          "name": "operator_",
          "type": "address"
        },
        {
          "internalType": "bool",
          "name": "approved_",
          "type": "bool"
        }
      ],
      "name": "setApprovalForAll",
      "outputs": [],
      "stateMutability": "nonpayable",
      "type": "function"
    },
    {
      "inputs": [
        {
          "internalType": "string",
          "name": "baseUri",
          "type": "string"
        }
      ],
      "name": "setBaseURI",
      "outputs": [],
      "stateMutability": "nonpayable",
      "type": "function"
    },
    {
      "inputs": [
        {
          "internalType": "address",
          "name": "account",
          "type": "address"
        },
        {
          "internalType": "bool",
          "name": "value",
          "type": "bool"
        }
      ],
      "name": "setERC721TransferExempt",
      "outputs": [],
      "stateMutability": "nonpayable",
      "type": "function"
    },
    {
      "inputs": [
        {
          "internalType": "bool",
          "name": "startMint",
          "type": "bool"
        }
      ],
      "name": "startPublicMint",
      "outputs": [],
      "stateMutability": "nonpayable",
      "type": "function"
    },
    {
      "inputs": [
        {
          "internalType": "bytes4",
          "name": "interfaceId",
          "type": "bytes4"
        }
      ],
      "name": "supportsInterface",
      "outputs": [
        {
          "internalType": "bool",
          "name": "",
          "type": "bool"
        }
      ],
      "stateMutability": "view",
      "type": "function"
    },
    {
      "inputs": [],
      "name": "symbol",
      "outputs": [
        {
          "internalType": "string",
          "name": "",
          "type": "string"
        }
      ],
      "stateMutability": "view",
      "type": "function"
    },
    {
      "inputs": [
        {
          "internalType": "uint256",
          "name": "id",
          "type": "uint256"
        }
      ],
      "name": "tokenURI",
      "outputs": [
        {
          "internalType": "string",
          "name": "",
          "type": "string"
        }
      ],
      "stateMutability": "view",
      "type": "function"
    },
    {
      "inputs": [],
      "name": "totalSupply",
      "outputs": [
        {
          "internalType": "uint256",
          "name": "",
          "type": "uint256"
        }
      ],
      "stateMutability": "view",
      "type": "function"
    },
    {
      "inputs": [
        {
          "internalType": "address",
          "name": "to_",
          "type": "address"
        },
        {
          "internalType": "uint256",
          "name": "value_",
          "type": "uint256"
        }
      ],
      "name": "transfer",
      "outputs": [
        {
          "internalType": "bool",
          "name": "",
          "type": "bool"
        }
      ],
      "stateMutability": "nonpayable",
      "type": "function"
    },
    {
      "inputs": [
        {
          "internalType": "address",
          "name": "from_",
          "type": "address"
        },
        {
          "internalType": "address",
          "name": "to_",
          "type": "address"
        },
        {
          "internalType": "uint256",
          "name": "valueOrId_",
          "type": "uint256"
        }
      ],
      "name": "transferFrom",
      "outputs": [
        {
          "internalType": "bool",
          "name": "",
          "type": "bool"
        }
      ],
      "stateMutability": "nonpayable",
      "type": "function"
    },
    {
      "inputs": [
        {
          "internalType": "address",
          "name": "newOwner",
          "type": "address"
        }
      ],
      "name": "transferOwnership",
      "outputs": [],
      "stateMutability": "nonpayable",
      "type": "function"
    },
    {
      "inputs": [],
      "name": "units",
      "outputs": [
        {
          "internalType": "uint256",
          "name": "",
          "type": "uint256"
        }
      ],
      "stateMutability": "view",
      "type": "function"
    },
    {
      "inputs": [
        {
          "internalType": "bytes32[]",
          "name": "proof_",
          "type": "bytes32[]"
        },
        {
          "internalType": "address",
          "name": "claimer_",
          "type": "address"
        },
        {
          "internalType": "uint256",
          "name": "value_",
          "type": "uint256"
        }
      ],
      "name": "verifyProof",
      "outputs": [
        {
          "internalType": "bool",
          "name": "",
          "type": "bool"
        }
      ],
      "stateMutability": "view",
      "type": "function"
    },
    {
      "inputs": [
        {
          "internalType": "address",
          "name": "account",
          "type": "address"
        },
        {
          "internalType": "uint256",
          "name": "amount",
          "type": "uint256"
        }
      ],
      "name": "withdraw",
      "outputs": [],
      "stateMutability": "nonpayable",
      "type": "function"
    }
  ],
  "bytecode": "0x61010060405260405180602001604052806000815250601390816200002591906200121c565b506040518060400160405280600581526020017f2e6a736f6e000000000000000000000000000000000000000000000000000000815250601490816200006c91906200121c565b506000601560006101000a81548160ff02191690831515021790555060006016553480156200009a57600080fd5b50604051620072dc380380620072dc8339818101604052810190620000c091906200150a565b818585858260029081620000d591906200121c565b508160039081620000e791906200121c565b5060128160ff16101562000127576040517f98790fd500000000000000000000000000000000000000000000000000000000815260040160405180910390fd5b8060ff1660808160ff1681525050608051600a62000146919062001753565b60a081815250504660c08181525050620001656200025860201b60201c565b60e08181525050505050600073ffffffffffffffffffffffffffffffffffffffff168173ffffffffffffffffffffffffffffffffffffffff1603620001e45760006040517f1e4fbdf7000000000000000000000000000000000000000000000000000000008152600401620001db9190620017b5565b60405180910390fd5b620001f581620002e860201b60201c565b50600160128190555062000211816001620003ae60201b60201c565b620002368160a051618ca0620002289190620017d2565b60006200046260201b60201c565b60a051600a620002479190620017d2565b601681905550505050505062001b13565b60007f8b73c3c69bb8fe3d512ecc4cf759cc79239f7b179b0ffacaa9a75d522b39400f60026040516200028c9190620018cc565b60405180910390207fc89efdaa54c0f20c7adf612882df0950f5a951637e0307cdcb4c672f298b8bc64630604051602001620002cd95949392919062001911565b60405160208183030381529060405280519060200120905090565b6000601160009054906101000a900473ffffffffffffffffffffffffffffffffffffffff16905081601160006101000a81548173ffffffffffffffffffffffffffffffffffffffff021916908373ffffffffffffffffffffffffffffffffffffffff1602179055508173ffffffffffffffffffffffffffffffffffffffff168173ffffffffffffffffffffffffffffffffffffffff167f8be0079c531659141344cd1fd0a4f28419497f9722a3daafe3b4186f6b6457e060405160405180910390a35050565b60a051620003c2836200058260201b60201c565b10158015620003cf575080155b1562000407576040517f3908ab3c00000000000000000000000000000000000000000000000000000000815260040160405180910390fd5b80600c60008473ffffffffffffffffffffffffffffffffffffffff1673ffffffffffffffffffffffffffffffffffffffff16815260200190815260200160002060006101000a81548160ff0219169083151502179055505050565b600073ffffffffffffffffffffffffffffffffffffffff168373ffffffffffffffffffffffffffffffffffffffff1603620004c9576040517f9c8d2cd200000000000000000000000000000000000000000000000000000000815260040160405180910390fd5b620004dd60008484620005cb60201b60201c565b808015620005355750600c60008473ffffffffffffffffffffffffffffffffffffffff1673ffffffffffffffffffffffffffffffffffffffff16815260200190815260200160002060009054906101000a900460ff16155b156200057d57600060a051836200054d91906200199d565b905060005b818110156200057a576200056c856200073360201b60201c565b808060010191505062000552565b50505b505050565b6000600660008373ffffffffffffffffffffffffffffffffffffffff1673ffffffffffffffffffffffffffffffffffffffff168152602001908152602001600020549050919050565b600073ffffffffffffffffffffffffffffffffffffffff168373ffffffffffffffffffffffffffffffffffffffff160362000621578060046000828254620006149190620019d5565b925050819055506200067a565b80600660008573ffffffffffffffffffffffffffffffffffffffff1673ffffffffffffffffffffffffffffffffffffffff168152602001908152602001600020600082825462000672919062001a10565b925050819055505b80600660008473ffffffffffffffffffffffffffffffffffffffff1673ffffffffffffffffffffffffffffffffffffffff168152602001908152602001600020600082825401925050819055508173ffffffffffffffffffffffffffffffffffffffff168373ffffffffffffffffffffffffffffffffffffffff167fe59fdd36d0d223c0c7d996db7ad796880f45e1936cb0bb7ac102e7082e0314878360405162000726919062001a4b565b60405180910390a3505050565b600073ffffffffffffffffffffffffffffffffffffffff168173ffffffffffffffffffffffffffffffffffffffff16036200079a576040517f9c8d2cd200000000000000000000000000000000000000000000000000000000815260040160405180910390fd5b6000620007ae60006200088160201b60201c565b620007cd57620007c56000620008f160201b60201c565b9050620007ed565b60056000815480929190620007e29062001a68565b919050555060055490505b6000620008008262000a5660201b60201c565b9050600073ffffffffffffffffffffffffffffffffffffffff168173ffffffffffffffffffffffffffffffffffffffff161462000869576040517f23369fa600000000000000000000000000000000000000000000000000000000815260040160405180910390fd5b6200087c81848462000a8e60201b60201c565b505050565b60008160000160009054906101000a90046fffffffffffffffffffffffffffffffff166fffffffffffffffffffffffffffffffff168260000160109054906101000a90046fffffffffffffffffffffffffffffffff166fffffffffffffffffffffffffffffffff16149050919050565b6000808260000160109054906101000a90046fffffffffffffffffffffffffffffffff1690508260000160009054906101000a90046fffffffffffffffffffffffffffffffff166fffffffffffffffffffffffffffffffff16816fffffffffffffffffffffffffffffffff160362000995576040517f75e52f4f00000000000000000000000000000000000000000000000000000000815260040160405180910390fd5b80600190039050826001016000826fffffffffffffffffffffffffffffffff166fffffffffffffffffffffffffffffffff168152602001908152602001600020549150826001016000826fffffffffffffffffffffffffffffffff166fffffffffffffffffffffffffffffffff16815260200190815260200160002060009055808360000160106101000a8154816fffffffffffffffffffffffffffffffff02191690836fffffffffffffffffffffffffffffffff16021790555050919050565b600080600a600084815260200190815260200160002054905073ffffffffffffffffffffffffffffffffffffffff8116915050919050565b600073ffffffffffffffffffffffffffffffffffffffff168373ffffffffffffffffffffffffffffffffffffffff161462000caa576008600082815260200190815260200160002060006101000a81549073ffffffffffffffffffffffffffffffffffffffff02191690556000600b60008573ffffffffffffffffffffffffffffffffffffffff1673ffffffffffffffffffffffffffffffffffffffff1681526020019081526020016000206001600b60008773ffffffffffffffffffffffffffffffffffffffff1673ffffffffffffffffffffffffffffffffffffffff1681526020019081526020016000208054905062000b8b919062001a10565b8154811062000b9f5762000b9e62001ab5565b5b9060005260206000200154905081811462000c4057600062000bc78362000e3760201b60201c565b905081600b60008773ffffffffffffffffffffffffffffffffffffffff1673ffffffffffffffffffffffffffffffffffffffff168152602001908152602001600020828154811062000c1e5762000c1d62001ab5565b5b906000526020600020018190555062000c3e828262000e5c60201b60201c565b505b600b60008573ffffffffffffffffffffffffffffffffffffffff1673ffffffffffffffffffffffffffffffffffffffff16815260200190815260200160002080548062000c925762000c9162001ae4565b5b60019003818190600052602060002001600090559055505b600073ffffffffffffffffffffffffffffffffffffffff168273ffffffffffffffffffffffffffffffffffffffff161462000dbf5762000cf1818362000f3060201b60201c565b600b60008373ffffffffffffffffffffffffffffffffffffffff1673ffffffffffffffffffffffffffffffffffffffff16815260200190815260200160002081908060018154018082558091505060019003906000526020600020016000909190919091505562000db9816001600b60008673ffffffffffffffffffffffffffffffffffffffff1673ffffffffffffffffffffffffffffffffffffffff1681526020019081526020016000208054905062000dad919062001a10565b62000e5c60201b60201c565b62000dd7565b600a6000828152602001908152602001600020600090555b808273ffffffffffffffffffffffffffffffffffffffff168473ffffffffffffffffffffffffffffffffffffffff167fe5f815dc84b8cecdfd4beedfc3f91ab5be7af100eca4e8fb11552b867995394f60405160405180910390a4505050565b600080600a60008481526020019081526020016000205490508060a01c915050919050565b6000600a600084815260200190815260200160002054905060a07fffffffffffffffffffffffff0000000000000000000000000000000000000000901c82111562000ed3576040517ffcb3438c00000000000000000000000000000000000000000000000000000000815260040160405180910390fd5b7fffffffffffffffffffffffff00000000000000000000000000000000000000008260a01b1673ffffffffffffffffffffffffffffffffffffffff821601905080600a600085815260200190815260200160002081905550505050565b6000600a600084815260200190815260200160002054905073ffffffffffffffffffffffffffffffffffffffff82167fffffffffffffffffffffffff0000000000000000000000000000000000000000821601905080600a600085815260200190815260200160002081905550505050565b600081519050919050565b7f4e487b7100000000000000000000000000000000000000000000000000000000600052604160045260246000fd5b7f4e487b7100000000000000000000000000000000000000000000000000000000600052602260045260246000fd5b600060028204905060018216806200102457607f821691505b6020821081036200103a576200103962000fdc565b5b50919050565b60008190508160005260206000209050919050565b60006020601f8301049050919050565b600082821b905092915050565b600060088302620010a47fffffffffffffffffffffffffffffffffffffffffffffffffffffffffffffffff8262001065565b620010b0868362001065565b95508019841693508086168417925050509392505050565b6000819050919050565b6000819050919050565b6000620010fd620010f7620010f184620010c8565b620010d2565b620010c8565b9050919050565b6000819050919050565b6200111983620010dc565b62001131620011288262001104565b84845462001072565b825550505050565b600090565b6200114862001139565b620011558184846200110e565b505050565b5b818110156200117d57620011716000826200113e565b6001810190506200115b565b5050565b601f821115620011cc57620011968162001040565b620011a18462001055565b81016020851015620011b1578190505b620011c9620011c08562001055565b8301826200115a565b50505b505050565b600082821c905092915050565b6000620011f160001984600802620011d1565b1980831691505092915050565b60006200120c8383620011de565b9150826002028217905092915050565b620012278262000fa2565b67ffffffffffffffff81111562001243576200124262000fad565b5b6200124f82546200100b565b6200125c82828562001181565b600060209050601f8311600181146200129457600084156200127f578287015190505b6200128b8582620011fe565b865550620012fb565b601f198416620012a48662001040565b60005b82811015620012ce57848901518255600182019150602085019450602081019050620012a7565b86831015620012ee5784890151620012ea601f891682620011de565b8355505b6001600288020188555050505b505050505050565b6000604051905090565b600080fd5b600080fd5b600080fd5b600080fd5b6000601f19601f8301169050919050565b6200133d8262001321565b810181811067ffffffffffffffff821117156200135f576200135e62000fad565b5b80604052505050565b60006200137462001303565b905062001382828262001332565b919050565b600067ffffffffffffffff821115620013a557620013a462000fad565b5b620013b08262001321565b9050602081019050919050565b60005b83811015620013dd578082015181840152602081019050620013c0565b60008484015250505050565b600062001400620013fa8462001387565b62001368565b9050828152602081018484840111156200141f576200141e6200131c565b5b6200142c848285620013bd565b509392505050565b600082601f8301126200144c576200144b62001317565b5b81516200145e848260208601620013e9565b91505092915050565b600060ff82169050919050565b6200147f8162001467565b81146200148b57600080fd5b50565b6000815190506200149f8162001474565b92915050565b600073ffffffffffffffffffffffffffffffffffffffff82169050919050565b6000620014d282620014a5565b9050919050565b620014e481620014c5565b8114620014f057600080fd5b50565b6000815190506200150481620014d9565b92915050565b600080600080600060a086880312156200152957620015286200130d565b5b600086015167ffffffffffffffff8111156200154a576200154962001312565b5b620015588882890162001434565b955050602086015167ffffffffffffffff8111156200157c576200157b62001312565b5b6200158a8882890162001434565b94505060406200159d888289016200148e565b9350506060620015b088828901620014f3565b9250506080620015c388828901620014f3565b9150509295509295909350565b7f4e487b7100000000000000000000000000000000000000000000000000000000600052601160045260246000fd5b60008160011c9050919050565b6000808291508390505b60018511156200165e57808604811115620016365762001635620015d0565b5b6001851615620016465780820291505b80810290506200165685620015ff565b945062001616565b94509492505050565b6000826200167957600190506200174c565b816200168957600090506200174c565b8160018114620016a25760028114620016ad57620016e3565b60019150506200174c565b60ff841115620016c257620016c1620015d0565b5b8360020a915084821115620016dc57620016db620015d0565b5b506200174c565b5060208310610133831016604e8410600b84101617156200171d5782820a905083811115620017175762001716620015d0565b5b6200174c565b6200172c84848460016200160c565b92509050818404811115620017465762001745620015d0565b5b81810290505b9392505050565b60006200176082620010c8565b91506200176d8362001467565b92506200179c7fffffffffffffffffffffffffffffffffffffffffffffffffffffffffffffffff848462001667565b905092915050565b620017af81620014c5565b82525050565b6000602082019050620017cc6000830184620017a4565b92915050565b6000620017df82620010c8565b9150620017ec83620010c8565b9250828202620017fc81620010c8565b91508282048414831517620018165762001815620015d0565b5b5092915050565b600081905092915050565b60008190508160005260206000209050919050565b600081546200184c816200100b565b6200185881866200181d565b945060018216600081146200187657600181146200188c57620018c3565b60ff1983168652811515820286019350620018c3565b620018978562001828565b60005b83811015620018bb578154818901526001820191506020810190506200189a565b838801955050505b50505092915050565b6000620018da82846200183d565b915081905092915050565b6000819050919050565b620018fa81620018e5565b82525050565b6200190b81620010c8565b82525050565b600060a082019050620019286000830188620018ef565b620019376020830187620018ef565b620019466040830186620018ef565b62001955606083018562001900565b620019646080830184620017a4565b9695505050505050565b7f4e487b7100000000000000000000000000000000000000000000000000000000600052601260045260246000fd5b6000620019aa82620010c8565b9150620019b783620010c8565b925082620019ca57620019c96200196e565b5b828204905092915050565b6000620019e282620010c8565b9150620019ef83620010c8565b925082820190508082111562001a0a5762001a09620015d0565b5b92915050565b600062001a1d82620010c8565b915062001a2a83620010c8565b925082820390508181111562001a455762001a44620015d0565b5b92915050565b600060208201905062001a62600083018462001900565b92915050565b600062001a7582620010c8565b91507fffffffffffffffffffffffffffffffffffffffffffffffffffffffffffffffff820362001aaa5762001aa9620015d0565b5b600182019050919050565b7f4e487b7100000000000000000000000000000000000000000000000000000000600052603260045260246000fd5b7f4e487b7100000000000000000000000000000000000000000000000000000000600052603160045260246000fd5b60805160a05160c05160e0516156fc62001be0600039600061189601526000611862015260008181611437015281816115cd015281816116000152818161172101528181611765015281816117e701528181611b4b01528181611b6e01528181611d650152818161282801528181612f2e01528181612f5a015281816130010152818161306c015281816130ce015281816131d7015281816132050152818161323101528181613278015281816132a40152818161341501526137010152600061183c01526156fc6000f3fe60806040526004361061027d5760003560e01c806389fb4c661161014f578063c5ab3ba6116100c1578063e985e9c51161007a578063e985e9c514610a15578063f2fde38b14610a52578063f3fef3a314610a7b578063f4cdda3614610aa4578063fa0fc8c614610ae1578063fb169d9914610b0c5761027d565b8063c5ab3ba6146108f3578063c6e672b91461091e578063c87b56dd14610947578063d505accf14610984578063dbddb26a146109ad578063dd62ed3e146109d85761027d565b8063a22cb46511610113578063a22cb465146107bf578063a5ce30d2146107e8578063a9059cbb14610813578063b1ab931714610850578063b3f9ea341461088d578063b88d4fde146108ca5761027d565b806389fb4c66146106ea5780638b2d8dec146107155780638da5cb5b1461073e57806395d89b4114610769578063976a8435146107945761027d565b80633057931f116101f357806370a08231116101ac57806370a08231146105c6578063715018a614610603578063726d20fe1461061a578063744dab38146106575780637ecebe001461068257806383443c52146106bf5761027d565b80633057931f146104b6578063313ce567146104e15780633644e5151461050c57806342842e0e1461053757806355f804b3146105605780636352211e146105895761027d565b806309d890d51161024557806309d890d5146103a157806309f0ef65146103cc57806318160ddd146104095780631e60fb3b1461043457806323b872dd1461045d5780632db115441461049a5761027d565b806301ffc9a71461028257806302519da3146102bf57806306fdde03146102fc578063081812fc14610327578063095ea7b314610364575b600080fd5b34801561028e57600080fd5b506102a960048036038101906102a49190614247565b610b37565b6040516102b6919061428f565b60405180910390f35b3480156102cb57600080fd5b506102e660048036038101906102e19190614308565b610c09565b6040516102f3919061434e565b60405180910390f35b34801561030857600080fd5b50610311610c52565b60405161031e91906143f9565b60405180910390f35b34801561033357600080fd5b5061034e60048036038101906103499190614447565b610ce0565b60405161035b9190614483565b60405180910390f35b34801561037057600080fd5b5061038b6004803603810190610386919061449e565b610d13565b604051610398919061428f565b60405180910390f35b3480156103ad57600080fd5b506103b661101f565b6040516103c3919061434e565b60405180910390f35b3480156103d857600080fd5b506103f360048036038101906103ee9190614308565b611030565b604051610400919061428f565b60405180910390f35b34801561041557600080fd5b5061041e611050565b60405161042b919061434e565b60405180910390f35b34801561044057600080fd5b5061045b6004803603810190610456919061450a565b611056565b005b34801561046957600080fd5b50610484600480360381019061047f9190614537565b61107b565b604051610491919061428f565b60405180910390f35b6104b460048036038101906104af9190614447565b6115c0565b005b3480156104c257600080fd5b506104cb611823565b6040516104d8919061428f565b60405180910390f35b3480156104ed57600080fd5b506104f661183a565b60405161050391906145a6565b60405180910390f35b34801561051857600080fd5b5061052161185e565b60405161052e91906145da565b60405180910390f35b34801561054357600080fd5b5061055e60048036038101906105599190614537565b6118bb565b005b34801561056c57600080fd5b506105876004803603810190610582919061472a565b6119ef565b005b34801561059557600080fd5b506105b060048036038101906105ab9190614447565b611a0a565b6040516105bd9190614483565b60405180910390f35b3480156105d257600080fd5b506105ed60048036038101906105e89190614308565b611a9a565b6040516105fa919061434e565b60405180910390f35b34801561060f57600080fd5b50610618611ab2565b005b34801561062657600080fd5b50610641600480360381019061063c9190614867565b611ac6565b60405161064e919061428f565b60405180910390f35b34801561066357600080fd5b5061066c611b43565b604051610679919061434e565b60405180910390f35b34801561068e57600080fd5b506106a960048036038101906106a49190614308565b611c10565b6040516106b6919061434e565b60405180910390f35b3480156106cb57600080fd5b506106d4611c28565b6040516106e1919061428f565b60405180910390f35b3480156106f657600080fd5b506106ff611c3b565b60405161070c919061434e565b60405180910390f35b34801561072157600080fd5b5061073c600480360381019061073791906148d6565b611c45565b005b34801561074a57600080fd5b50610753611cab565b6040516107609190614483565b60405180910390f35b34801561077557600080fd5b5061077e611cd5565b60405161078b91906143f9565b60405180910390f35b3480156107a057600080fd5b506107a9611d63565b6040516107b6919061434e565b60405180910390f35b3480156107cb57600080fd5b506107e660048036038101906107e19190614932565b611d87565b005b3480156107f457600080fd5b506107fd611eea565b60405161080a91906145da565b60405180910390f35b34801561081f57600080fd5b5061083a6004803603810190610835919061449e565b611ef0565b604051610847919061428f565b60405180910390f35b34801561085c57600080fd5b5061087760048036038101906108729190614308565b611f6a565b6040516108849190614a30565b60405180910390f35b34801561089957600080fd5b506108b460048036038101906108af9190614308565b612001565b6040516108c1919061434e565b60405180910390f35b3480156108d657600080fd5b506108f160048036038101906108ec9190614aad565b61204d565b005b3480156108ff57600080fd5b50610908612187565b604051610915919061434e565b60405180910390f35b34801561092a57600080fd5b5061094560048036038101906109409190614932565b612191565b005b34801561095357600080fd5b5061096e60048036038101906109699190614447565b6121a7565b60405161097b91906143f9565b60405180910390f35b34801561099057600080fd5b506109ab60048036038101906109a69190614b61565b61228f565b005b3480156109b957600080fd5b506109c26125fb565b6040516109cf91906143f9565b60405180910390f35b3480156109e457600080fd5b506109ff60048036038101906109fa9190614c03565b61268d565b604051610a0c919061434e565b60405180910390f35b348015610a2157600080fd5b50610a3c6004803603810190610a379190614c03565b6126b2565b604051610a49919061428f565b60405180910390f35b348015610a5e57600080fd5b50610a796004803603810190610a749190614308565b6126e1565b005b348015610a8757600080fd5b50610aa26004803603810190610a9d919061449e565b612767565b005b348015610ab057600080fd5b50610acb6004803603810190610ac69190614308565b6127fd565b604051610ad8919061428f565b60405180910390f35b348015610aed57600080fd5b50610af661281d565b604051610b03919061434e565b60405180910390f35b348015610b1857600080fd5b50610b21612824565b604051610b2e919061434e565b60405180910390f35b60007f219d65bb000000000000000000000000000000000000000000000000000000007bffffffffffffffffffffffffffffffffffffffffffffffffffffffff1916827bffffffffffffffffffffffffffffffffffffffffffffffffffffffff19161480610c0257507f01ffc9a7000000000000000000000000000000000000000000000000000000007bffffffffffffffffffffffffffffffffffffffffffffffffffffffff1916827bffffffffffffffffffffffffffffffffffffffffffffffffffffffff1916145b9050919050565b6000600660008373ffffffffffffffffffffffffffffffffffffffff1673ffffffffffffffffffffffffffffffffffffffff168152602001908152602001600020549050919050565b60028054610c5f90614c72565b80601f0160208091040260200160405190810160405280929190818152602001828054610c8b90614c72565b8015610cd85780601f10610cad57610100808354040283529160200191610cd8565b820191906000526020600020905b815481529060010190602001808311610cbb57829003601f168201915b505050505081565b60086020528060005260406000206000915054906101000a900473ffffffffffffffffffffffffffffffffffffffff1681565b60006005548211158015610d275750600082115b15610eec5760008290506000610d3c82612859565b90508073ffffffffffffffffffffffffffffffffffffffff163373ffffffffffffffffffffffffffffffffffffffff1614158015610e015750600960008273ffffffffffffffffffffffffffffffffffffffff1673ffffffffffffffffffffffffffffffffffffffff16815260200190815260200160002060003373ffffffffffffffffffffffffffffffffffffffff1673ffffffffffffffffffffffffffffffffffffffff16815260200190815260200160002060009054906101000a900460ff16155b15610e38576040517f82b4290000000000000000000000000000000000000000000000000000000000815260040160405180910390fd5b846008600084815260200190815260200160002060006101000a81548173ffffffffffffffffffffffffffffffffffffffff021916908373ffffffffffffffffffffffffffffffffffffffff160217905550818573ffffffffffffffffffffffffffffffffffffffff168273ffffffffffffffffffffffffffffffffffffffff167f797365dabb18fa726ccbccbe18c6f24c34e3b0653f2e99ea873bd7b84763dde660405160405180910390a45050611015565b600073ffffffffffffffffffffffffffffffffffffffff168373ffffffffffffffffffffffffffffffffffffffff1603610f52576040517f5461585f00000000000000000000000000000000000000000000000000000000815260040160405180910390fd5b600082905080600760003373ffffffffffffffffffffffffffffffffffffffff1673ffffffffffffffffffffffffffffffffffffffff16815260200190815260200160002060008673ffffffffffffffffffffffffffffffffffffffff1673ffffffffffffffffffffffffffffffffffffffff168152602001908152602001600020819055507f1f01303a1ce9329d9963e1937c201e23c5543a9e3536e9edead087aec7dc6d8333858360405161100b93929190614ca3565b60405180910390a1505b6001905092915050565b600061102b6000612891565b905090565b600c6020528060005260406000206000915054906101000a900460ff1681565b60045481565b61105e6128ef565b80601560006101000a81548160ff02191690831515021790555050565b60008073ffffffffffffffffffffffffffffffffffffffff168473ffffffffffffffffffffffffffffffffffffffff16036110e2576040517fddb5de5e00000000000000000000000000000000000000000000000000000000815260040160405180910390fd5b600073ffffffffffffffffffffffffffffffffffffffff168373ffffffffffffffffffffffffffffffffffffffff1603611148576040517f9c8d2cd200000000000000000000000000000000000000000000000000000000815260040160405180910390fd5b600554821161146c57600082905061115f81612859565b73ffffffffffffffffffffffffffffffffffffffff168573ffffffffffffffffffffffffffffffffffffffff16146111c3576040517f82b4290000000000000000000000000000000000000000000000000000000000815260040160405180910390fd5b8473ffffffffffffffffffffffffffffffffffffffff163373ffffffffffffffffffffffffffffffffffffffff16141580156112865750600960008673ffffffffffffffffffffffffffffffffffffffff1673ffffffffffffffffffffffffffffffffffffffff16815260200190815260200160002060003373ffffffffffffffffffffffffffffffffffffffff1673ffffffffffffffffffffffffffffffffffffffff16815260200190815260200160002060009054906101000a900460ff16155b80156112f157506008600082815260200190815260200160002060009054906101000a900473ffffffffffffffffffffffffffffffffffffffff1673ffffffffffffffffffffffffffffffffffffffff163373ffffffffffffffffffffffffffffffffffffffff1614155b15611328576040517f82b4290000000000000000000000000000000000000000000000000000000000815260040160405180910390fd5b600c60008673ffffffffffffffffffffffffffffffffffffffff1673ffffffffffffffffffffffffffffffffffffffff16815260200190815260200160002060009054906101000a900460ff16156113ac576040517f35af926600000000000000000000000000000000000000000000000000000000815260040160405180910390fd5b600c60008573ffffffffffffffffffffffffffffffffffffffff1673ffffffffffffffffffffffffffffffffffffffff16815260200190815260200160002060009054906101000a900460ff1615611430576040517f5ce7539700000000000000000000000000000000000000000000000000000000815260040160405180910390fd5b61145b85857f0000000000000000000000000000000000000000000000000000000000000000612976565b611466858583612ad6565b506115b5565b60008290506000600760008773ffffffffffffffffffffffffffffffffffffffff1673ffffffffffffffffffffffffffffffffffffffff16815260200190815260200160002060003373ffffffffffffffffffffffffffffffffffffffff1673ffffffffffffffffffffffffffffffffffffffff1681526020019081526020016000205490507fffffffffffffffffffffffffffffffffffffffffffffffffffffffffffffffff81146115a65781816115259190614d09565b600760008873ffffffffffffffffffffffffffffffffffffffff1673ffffffffffffffffffffffffffffffffffffffff16815260200190815260200160002060003373ffffffffffffffffffffffffffffffffffffffff1673ffffffffffffffffffffffffffffffffffffffff168152602001908152602001600020819055505b6115b1868684612e4e565b5050505b600190509392505050565b6115c86132fd565b6016547f0000000000000000000000000000000000000000000000000000000000000000826115f79190614d3d565b111561166957807f000000000000000000000000000000000000000000000000000000000000000060165461162c9190614dae565b6040517f2f5723a7000000000000000000000000000000000000000000000000000000008152600401611660929190614ddf565b60405180910390fd5b601560009054906101000a900460ff166116af576040517fcd967e3500000000000000000000000000000000000000000000000000000000815260040160405180910390fd5b806116b8611b43565b6116c29190614d3d565b34101561171a57806116d2611b43565b6116dc9190614d3d565b346040517fc1084223000000000000000000000000000000000000000000000000000000008152600401611711929190614ddf565b60405180910390fd5b62030d40817f0000000000000000000000000000000000000000000000000000000000000000611748611c3b565b6117529190614dae565b61175c9190614e08565b11156117e157807f000000000000000000000000000000000000000000000000000000000000000061178c611c3b565b6117969190614dae565b62030d406117a49190614d09565b6040517fadc3cee50000000000000000000000000000000000000000000000000000000081526004016117d8929190614ddf565b60405180910390fd5b611818337f0000000000000000000000000000000000000000000000000000000000000000836118119190614d3d565b6000613343565b61182061346a565b50565b6000601560009054906101000a900460ff16905090565b7f000000000000000000000000000000000000000000000000000000000000000081565b60007f000000000000000000000000000000000000000000000000000000000000000046146118945761188f613474565b6118b6565b7f00000000000000000000000000000000000000000000000000000000000000005b905090565b6118c683838361107b565b5060008273ffffffffffffffffffffffffffffffffffffffff163b141580156119b3575063150b7a0260e01b7bffffffffffffffffffffffffffffffffffffffffffffffffffffffff19168273ffffffffffffffffffffffffffffffffffffffff1663150b7a023386856040518463ffffffff1660e01b815260040161194e93929190614e73565b6020604051808303816000875af115801561196d573d6000803e3d6000fd5b505050506040513d601f19601f820116820180604052508101906119919190614ed2565b7bffffffffffffffffffffffffffffffffffffffffffffffffffffffff191614155b156119ea576040517f3da6393100000000000000000000000000000000000000000000000000000000815260040160405180910390fd5b505050565b6119f76128ef565b8060139081611a0691906150ab565b5050565b6000611a1582612859565b9050600554821180611a275750600082145b80611a5e5750600073ffffffffffffffffffffffffffffffffffffffff168173ffffffffffffffffffffffffffffffffffffffff16145b15611a95576040517fc5723b5100000000000000000000000000000000000000000000000000000000815260040160405180910390fd5b919050565b60066020528060005260406000206000915090505481565b611aba6128ef565b611ac46000613500565b565b6000808383604051602001611adc92919061517d565b60405160208183030381529060405280519060200120604051602001611b0291906151c7565b604051602081830303815290604052805190602001209050611b2785600f54836135c6565b15611b36576001915050611b3c565b60009150505b9392505050565b6000806107d07f000000000000000000000000000000000000000000000000000000000000000060017f00000000000000000000000000000000000000000000000000000000000000006107d0611b9a9190614d3d565b611ba49190614d09565b611bac611c3b565b611bb69190614e08565b611bc09190614dae565b611bca9190614dae565b905060008103611be45766f8b0a10e470000915050611c0d565b662386f26fc1000081611bf79190614d3d565b66f8b0a10e470000611c099190614e08565b9150505b90565b600d6020528060005260406000206000915090505481565b600e60009054906101000a900460ff1681565b6000600454905090565b6000801b600f541480611c655750600e60009054906101000a900460ff16155b15611c9c576040517f2a47e63200000000000000000000000000000000000000000000000000000000815260040160405180910390fd5b611ca78233836135dd565b5050565b6000601160009054906101000a900473ffffffffffffffffffffffffffffffffffffffff16905090565b60038054611ce290614c72565b80601f0160208091040260200160405190810160405280929190818152602001828054611d0e90614c72565b8015611d5b5780601f10611d3057610100808354040283529160200191611d5b565b820191906000526020600020905b815481529060010190602001808311611d3e57829003601f168201915b505050505081565b7f000000000000000000000000000000000000000000000000000000000000000081565b600073ffffffffffffffffffffffffffffffffffffffff168273ffffffffffffffffffffffffffffffffffffffff1603611ded576040517fccea9e6f00000000000000000000000000000000000000000000000000000000815260040160405180910390fd5b80600960003373ffffffffffffffffffffffffffffffffffffffff1673ffffffffffffffffffffffffffffffffffffffff16815260200190815260200160002060008473ffffffffffffffffffffffffffffffffffffffff1673ffffffffffffffffffffffffffffffffffffffff16815260200190815260200160002060006101000a81548160ff0219169083151502179055508173ffffffffffffffffffffffffffffffffffffffff163373ffffffffffffffffffffffffffffffffffffffff167f17307eab39ab6107e8899845ad3d59bd9653f200f220920489ca2b5937696c3183604051611ede919061428f565b60405180910390a35050565b600f5481565b60008073ffffffffffffffffffffffffffffffffffffffff168373ffffffffffffffffffffffffffffffffffffffff1603611f57576040517f9c8d2cd200000000000000000000000000000000000000000000000000000000815260040160405180910390fd5b611f62338484612e4e565b905092915050565b6060600b60008373ffffffffffffffffffffffffffffffffffffffff1673ffffffffffffffffffffffffffffffffffffffff168152602001908152602001600020805480602002602001604051908101604052809291908181526020018280548015611ff557602002820191906000526020600020905b815481526020019060010190808311611fe1575b50505050509050919050565b6000600b60008373ffffffffffffffffffffffffffffffffffffffff1673ffffffffffffffffffffffffffffffffffffffff168152602001908152602001600020805490509050919050565b61205885858561107b565b5060008473ffffffffffffffffffffffffffffffffffffffff163b14158015612149575063150b7a0260e01b7bffffffffffffffffffffffffffffffffffffffffffffffffffffffff19168473ffffffffffffffffffffffffffffffffffffffff1663150b7a0233888787876040518663ffffffff1660e01b81526004016120e495949392919061520f565b6020604051808303816000875af1158015612103573d6000803e3d6000fd5b505050506040513d601f19601f820116820180604052508101906121279190614ed2565b7bffffffffffffffffffffffffffffffffffffffffffffffffffffffff191614155b15612180576040517f3da6393100000000000000000000000000000000000000000000000000000000815260040160405180910390fd5b5050505050565b6000600554905090565b6121996128ef565b6121a382826136ff565b5050565b60606005548211806121b95750600082145b806121f85750600073ffffffffffffffffffffffffffffffffffffffff166121e083612859565b73ffffffffffffffffffffffffffffffffffffffff16145b1561222f576040517fc5723b5100000000000000000000000000000000000000000000000000000000815260040160405180910390fd5b60006122396137c7565b905060008151116122595760405180602001604052806000815250612287565b8061226384613859565b60146040516020016122779392919061531c565b6040516020818303038152906040525b915050919050565b428410156122c9576040517f05787bdf00000000000000000000000000000000000000000000000000000000815260040160405180910390fd5b60055485111580156122db5750600085115b15612312576040517f1f3e0de800000000000000000000000000000000000000000000000000000000815260040160405180910390fd5b600073ffffffffffffffffffffffffffffffffffffffff168673ffffffffffffffffffffffffffffffffffffffff1603612378576040517f5461585f00000000000000000000000000000000000000000000000000000000815260040160405180910390fd5b6000600161238461185e565b7f6e71edae12b1b97f4d1f60370fef10105fa2faae0126114a169c64845d6126c98a8a8a600d60008f73ffffffffffffffffffffffffffffffffffffffff1673ffffffffffffffffffffffffffffffffffffffff1681526020019081526020016000206000815480929190600101919050558b60405160200161240c9695949392919061534d565b604051602081830303815290604052805190602001206040516020016124339291906153fa565b60405160208183030381529060405280519060200120858585604051600081526020016040526040516124699493929190615431565b6020604051602081039080840390855afa15801561248b573d6000803e3d6000fd5b505050602060405103519050600073ffffffffffffffffffffffffffffffffffffffff168173ffffffffffffffffffffffffffffffffffffffff1614806124fe57508773ffffffffffffffffffffffffffffffffffffffff168173ffffffffffffffffffffffffffffffffffffffff1614155b15612535576040517f815e1d6400000000000000000000000000000000000000000000000000000000815260040160405180910390fd5b85600760008373ffffffffffffffffffffffffffffffffffffffff1673ffffffffffffffffffffffffffffffffffffffff16815260200190815260200160002060008973ffffffffffffffffffffffffffffffffffffffff1673ffffffffffffffffffffffffffffffffffffffff16815260200190815260200160002081905550507f1f01303a1ce9329d9963e1937c201e23c5543a9e3536e9edead087aec7dc6d838787876040516125ea93929190614ca3565b60405180910390a150505050505050565b60606013805461260a90614c72565b80601f016020809104026020016040519081016040528092919081815260200182805461263690614c72565b80156126835780601f1061265857610100808354040283529160200191612683565b820191906000526020600020905b81548152906001019060200180831161266657829003601f168201915b5050505050905090565b6007602052816000526040600020602052806000526040600020600091509150505481565b60096020528160005260406000206020528060005260406000206000915091509054906101000a900460ff1681565b6126e96128ef565b600073ffffffffffffffffffffffffffffffffffffffff168173ffffffffffffffffffffffffffffffffffffffff160361275b5760006040517f1e4fbdf70000000000000000000000000000000000000000000000000000000081526004016127529190614483565b60405180910390fd5b61276481613500565b50565b61276f6128ef565b478111156127b2576040517f08c379a00000000000000000000000000000000000000000000000000000000081526004016127a9906154c2565b60405180910390fd5b8173ffffffffffffffffffffffffffffffffffffffff166108fc829081150290604051600060405180830381858888f193505050501580156127f8573d6000803e3d6000fd5b505050565b60106020528060005260406000206000915054906101000a900460ff1681565b62030d4081565b60007f00000000000000000000000000000000000000000000000000000000000000006016546128549190614dae565b905090565b600080600a600084815260200190815260200160002054905073ffffffffffffffffffffffffffffffffffffffff8116915050919050565b60008160000160009054906101000a90046fffffffffffffffffffffffffffffffff168260000160109054906101000a90046fffffffffffffffffffffffffffffffff16036fffffffffffffffffffffffffffffffff169050919050565b6128f7613927565b73ffffffffffffffffffffffffffffffffffffffff16612915611cab565b73ffffffffffffffffffffffffffffffffffffffff161461297457612938613927565b6040517f118cdaa700000000000000000000000000000000000000000000000000000000815260040161296b9190614483565b60405180910390fd5b565b600073ffffffffffffffffffffffffffffffffffffffff168373ffffffffffffffffffffffffffffffffffffffff16036129c85780600460008282546129bc9190614e08565b92505081905550612a1f565b80600660008573ffffffffffffffffffffffffffffffffffffffff1673ffffffffffffffffffffffffffffffffffffffff1681526020019081526020016000206000828254612a179190614d09565b925050819055505b80600660008473ffffffffffffffffffffffffffffffffffffffff1673ffffffffffffffffffffffffffffffffffffffff168152602001908152602001600020600082825401925050819055508173ffffffffffffffffffffffffffffffffffffffff168373ffffffffffffffffffffffffffffffffffffffff167fe59fdd36d0d223c0c7d996db7ad796880f45e1936cb0bb7ac102e7082e03148783604051612ac9919061434e565b60405180910390a3505050565b600073ffffffffffffffffffffffffffffffffffffffff168373ffffffffffffffffffffffffffffffffffffffff1614612cd5576008600082815260200190815260200160002060006101000a81549073ffffffffffffffffffffffffffffffffffffffff02191690556000600b60008573ffffffffffffffffffffffffffffffffffffffff1673ffffffffffffffffffffffffffffffffffffffff1681526020019081526020016000206001600b60008773ffffffffffffffffffffffffffffffffffffffff1673ffffffffffffffffffffffffffffffffffffffff16815260200190815260200160002080549050612bd09190614d09565b81548110612be157612be06154e2565b5b90600052602060002001549050818114612c6e576000612c008361392f565b905081600b60008773ffffffffffffffffffffffffffffffffffffffff1673ffffffffffffffffffffffffffffffffffffffff1681526020019081526020016000208281548110612c5457612c536154e2565b5b9060005260206000200181905550612c6c8282613954565b505b600b60008573ffffffffffffffffffffffffffffffffffffffff1673ffffffffffffffffffffffffffffffffffffffff168152602001908152602001600020805480612cbd57612cbc615511565b5b60019003818190600052602060002001600090559055505b600073ffffffffffffffffffffffffffffffffffffffff168273ffffffffffffffffffffffffffffffffffffffff1614612dd657612d138183613a27565b600b60008373ffffffffffffffffffffffffffffffffffffffff1673ffffffffffffffffffffffffffffffffffffffff168152602001908152602001600020819080600181540180825580915050600190039060005260206000200160009091909190915055612dd1816001600b60008673ffffffffffffffffffffffffffffffffffffffff1673ffffffffffffffffffffffffffffffffffffffff16815260200190815260200160002080549050612dcc9190614d09565b613954565b612dee565b600a6000828152602001908152602001600020600090555b808273ffffffffffffffffffffffffffffffffffffffff168473ffffffffffffffffffffffffffffffffffffffff167fe5f815dc84b8cecdfd4beedfc3f91ab5be7af100eca4e8fb11552b867995394f60405160405180910390a4505050565b600080612e5a85610c09565b90506000612e6785610c09565b9050612e74868686612976565b6000600c60008873ffffffffffffffffffffffffffffffffffffffff1673ffffffffffffffffffffffffffffffffffffffff16815260200190815260200160002060009054906101000a900460ff1690506000600c60008873ffffffffffffffffffffffffffffffffffffffff1673ffffffffffffffffffffffffffffffffffffffff16815260200190815260200160002060009054906101000a900460ff169050818015612f205750805b6132ee578115612ff75760007f000000000000000000000000000000000000000000000000000000000000000084612f589190614dae565b7f0000000000000000000000000000000000000000000000000000000000000000600660008b73ffffffffffffffffffffffffffffffffffffffff1673ffffffffffffffffffffffffffffffffffffffff16815260200190815260200160002054612fc39190614dae565b612fcd9190614d09565b905060005b81811015612ff057612fe389613a99565b8080600101915050612fd2565b50506132ed565b80156130ca5760007f0000000000000000000000000000000000000000000000000000000000000000600660008b73ffffffffffffffffffffffffffffffffffffffff1673ffffffffffffffffffffffffffffffffffffffff1681526020019081526020016000205461306a9190614dae565b7f0000000000000000000000000000000000000000000000000000000000000000866130969190614dae565b6130a09190614d09565b905060005b818110156130c3576130b68a613bc1565b80806001019150506130a5565b50506132ec565b60007f0000000000000000000000000000000000000000000000000000000000000000876130f89190614dae565b905060005b818110156131d25760006001600b60008d73ffffffffffffffffffffffffffffffffffffffff1673ffffffffffffffffffffffffffffffffffffffff168152602001908152602001600020805490506131569190614d09565b90506000600b60008d73ffffffffffffffffffffffffffffffffffffffff1673ffffffffffffffffffffffffffffffffffffffff16815260200190815260200160002082815481106131ab576131aa6154e2565b5b906000526020600020015490506131c38c8c83612ad6565b828060010193505050506130fd565b5060007f0000000000000000000000000000000000000000000000000000000000000000886132019190615540565b90507f00000000000000000000000000000000000000000000000000000000000000008661322f9190614dae565b7f0000000000000000000000000000000000000000000000000000000000000000828861325c9190614d09565b6132669190614dae565b1015613276576132758a613bc1565b5b7f0000000000000000000000000000000000000000000000000000000000000000856132a29190614dae565b7f000000000000000000000000000000000000000000000000000000000000000082876132cf9190614e08565b6132d99190614dae565b11156132e9576132e889613a99565b5b50505b5b5b60019450505050509392505050565b600260125403613339576040517f3ee5aeb500000000000000000000000000000000000000000000000000000000815260040160405180910390fd5b6002601281905550565b600073ffffffffffffffffffffffffffffffffffffffff168373ffffffffffffffffffffffffffffffffffffffff16036133a9576040517f9c8d2cd200000000000000000000000000000000000000000000000000000000815260040160405180910390fd5b6133b560008484612976565b80801561340c5750600c60008473ffffffffffffffffffffffffffffffffffffffff1673ffffffffffffffffffffffffffffffffffffffff16815260200190815260200160002060009054906101000a900460ff16155b156134655760007f00000000000000000000000000000000000000000000000000000000000000008361343f9190614dae565b905060005b818110156134625761345585613a99565b8080600101915050613444565b50505b505050565b6001601281905550565b60007f8b73c3c69bb8fe3d512ecc4cf759cc79239f7b179b0ffacaa9a75d522b39400f60026040516134a69190615614565b60405180910390207fc89efdaa54c0f20c7adf612882df0950f5a951637e0307cdcb4c672f298b8bc646306040516020016134e595949392919061562b565b60405160208183030381529060405280519060200120905090565b6000601160009054906101000a900473ffffffffffffffffffffffffffffffffffffffff16905081601160006101000a81548173ffffffffffffffffffffffffffffffffffffffff021916908373ffffffffffffffffffffffffffffffffffffffff1602179055508173ffffffffffffffffffffffffffffffffffffffff168173ffffffffffffffffffffffffffffffffffffffff167f8be0079c531659141344cd1fd0a4f28419497f9722a3daafe3b4186f6b6457e060405160405180910390a35050565b6000826135d38584613cf9565b1490509392505050565b6135e8838383611ac6565b61361e576040517f7745886e00000000000000000000000000000000000000000000000000000000815260040160405180910390fd5b601060008373ffffffffffffffffffffffffffffffffffffffff1673ffffffffffffffffffffffffffffffffffffffff16815260200190815260200160002060009054906101000a900460ff16156136a2576040517fe4ca4c0b00000000000000000000000000000000000000000000000000000000815260040160405180910390fd5b6001601060008473ffffffffffffffffffffffffffffffffffffffff1673ffffffffffffffffffffffffffffffffffffffff16815260200190815260200160002060006101000a81548160ff021916908315150217905550505050565b7f000000000000000000000000000000000000000000000000000000000000000061372983610c09565b10158015613735575080155b1561376c576040517f3908ab3c00000000000000000000000000000000000000000000000000000000815260040160405180910390fd5b80600c60008473ffffffffffffffffffffffffffffffffffffffff1673ffffffffffffffffffffffffffffffffffffffff16815260200190815260200160002060006101000a81548160ff0219169083151502179055505050565b6060601380546137d690614c72565b80601f016020809104026020016040519081016040528092919081815260200182805461380290614c72565b801561384f5780601f106138245761010080835404028352916020019161384f565b820191906000526020600020905b81548152906001019060200180831161383257829003601f168201915b5050505050905090565b60606000600161386884613d4f565b01905060008167ffffffffffffffff811115613887576138866145ff565b5b6040519080825280601f01601f1916602001820160405280156138b95781602001600182028036833780820191505090505b509050600082602001820190505b60011561391c578080600190039150507f3031323334353637383961626364656600000000000000000000000000000000600a86061a8153600a85816139105761390f614d7f565b5b049450600085036138c7575b819350505050919050565b600033905090565b600080600a60008481526020019081526020016000205490508060a01c915050919050565b6000600a600084815260200190815260200160002054905060a07fffffffffffffffffffffffff0000000000000000000000000000000000000000901c8211156139ca576040517ffcb3438c00000000000000000000000000000000000000000000000000000000815260040160405180910390fd5b7fffffffffffffffffffffffff00000000000000000000000000000000000000008260a01b1673ffffffffffffffffffffffffffffffffffffffff821601905080600a600085815260200190815260200160002081905550505050565b6000600a600084815260200190815260200160002054905073ffffffffffffffffffffffffffffffffffffffff82167fffffffffffffffffffffffff0000000000000000000000000000000000000000821601905080600a600085815260200190815260200160002081905550505050565b600073ffffffffffffffffffffffffffffffffffffffff168173ffffffffffffffffffffffffffffffffffffffff1603613aff576040517f9c8d2cd200000000000000000000000000000000000000000000000000000000815260040160405180910390fd5b6000613b0b6000613ea2565b613b2057613b196000613f12565b9050613b3e565b60056000815480929190613b339061567e565b919050555060055490505b6000613b4982612859565b9050600073ffffffffffffffffffffffffffffffffffffffff168173ffffffffffffffffffffffffffffffffffffffff1614613bb1576040517f23369fa600000000000000000000000000000000000000000000000000000000815260040160405180910390fd5b613bbc818484612ad6565b505050565b600073ffffffffffffffffffffffffffffffffffffffff168173ffffffffffffffffffffffffffffffffffffffff1603613c27576040517fddb5de5e00000000000000000000000000000000000000000000000000000000815260040160405180910390fd5b6000600b60008373ffffffffffffffffffffffffffffffffffffffff1673ffffffffffffffffffffffffffffffffffffffff1681526020019081526020016000206001600b60008573ffffffffffffffffffffffffffffffffffffffff1673ffffffffffffffffffffffffffffffffffffffff16815260200190815260200160002080549050613cb79190614d09565b81548110613cc857613cc76154e2565b5b90600052602060002001549050613ce182600083612ad6565b613cf581600061407690919063ffffffff16565b5050565b60008082905060005b8451811015613d4457613d2f82868381518110613d2257613d216154e2565b5b6020026020010151614199565b91508080613d3c9061567e565b915050613d02565b508091505092915050565b600080600090507a184f03e93ff9f4daa797ed6e38ed64bf6a1f0100000000000000008310613dad577a184f03e93ff9f4daa797ed6e38ed64bf6a1f0100000000000000008381613da357613da2614d7f565b5b0492506040810190505b6d04ee2d6d415b85acef81000000008310613dea576d04ee2d6d415b85acef81000000008381613de057613ddf614d7f565b5b0492506020810190505b662386f26fc100008310613e1957662386f26fc100008381613e0f57613e0e614d7f565b5b0492506010810190505b6305f5e1008310613e42576305f5e1008381613e3857613e37614d7f565b5b0492506008810190505b6127108310613e67576127108381613e5d57613e5c614d7f565b5b0492506004810190505b60648310613e8a5760648381613e8057613e7f614d7f565b5b0492506002810190505b600a8310613e99576001810190505b80915050919050565b60008160000160009054906101000a90046fffffffffffffffffffffffffffffffff166fffffffffffffffffffffffffffffffff168260000160109054906101000a90046fffffffffffffffffffffffffffffffff166fffffffffffffffffffffffffffffffff16149050919050565b6000808260000160109054906101000a90046fffffffffffffffffffffffffffffffff1690508260000160009054906101000a90046fffffffffffffffffffffffffffffffff166fffffffffffffffffffffffffffffffff16816fffffffffffffffffffffffffffffffff1603613fb5576040517f75e52f4f00000000000000000000000000000000000000000000000000000000815260040160405180910390fd5b80600190039050826001016000826fffffffffffffffffffffffffffffffff166fffffffffffffffffffffffffffffffff168152602001908152602001600020549150826001016000826fffffffffffffffffffffffffffffffff166fffffffffffffffffffffffffffffffff16815260200190815260200160002060009055808360000160106101000a8154816fffffffffffffffffffffffffffffffff02191690836fffffffffffffffffffffffffffffffff16021790555050919050565b600060018360000160009054906101000a90046fffffffffffffffffffffffffffffffff160390508260000160109054906101000a90046fffffffffffffffffffffffffffffffff166fffffffffffffffffffffffffffffffff16816fffffffffffffffffffffffffffffffff160361411b576040517f8acb5f2700000000000000000000000000000000000000000000000000000000815260040160405180910390fd5b81836001016000836fffffffffffffffffffffffffffffffff166fffffffffffffffffffffffffffffffff16815260200190815260200160002081905550808360000160006101000a8154816fffffffffffffffffffffffffffffffff02191690836fffffffffffffffffffffffffffffffff160217905550505050565b60008183106141b1576141ac82846141c4565b6141bc565b6141bb83836141c4565b5b905092915050565b600082600052816020526040600020905092915050565b6000604051905090565b600080fd5b600080fd5b60007fffffffff0000000000000000000000000000000000000000000000000000000082169050919050565b614224816141ef565b811461422f57600080fd5b50565b6000813590506142418161421b565b92915050565b60006020828403121561425d5761425c6141e5565b5b600061426b84828501614232565b91505092915050565b60008115159050919050565b61428981614274565b82525050565b60006020820190506142a46000830184614280565b92915050565b600073ffffffffffffffffffffffffffffffffffffffff82169050919050565b60006142d5826142aa565b9050919050565b6142e5816142ca565b81146142f057600080fd5b50565b600081359050614302816142dc565b92915050565b60006020828403121561431e5761431d6141e5565b5b600061432c848285016142f3565b91505092915050565b6000819050919050565b61434881614335565b82525050565b6000602082019050614363600083018461433f565b92915050565b600081519050919050565b600082825260208201905092915050565b60005b838110156143a3578082015181840152602081019050614388565b60008484015250505050565b6000601f19601f8301169050919050565b60006143cb82614369565b6143d58185614374565b93506143e5818560208601614385565b6143ee816143af565b840191505092915050565b6000602082019050818103600083015261441381846143c0565b905092915050565b61442481614335565b811461442f57600080fd5b50565b6000813590506144418161441b565b92915050565b60006020828403121561445d5761445c6141e5565b5b600061446b84828501614432565b91505092915050565b61447d816142ca565b82525050565b60006020820190506144986000830184614474565b92915050565b600080604083850312156144b5576144b46141e5565b5b60006144c3858286016142f3565b92505060206144d485828601614432565b9150509250929050565b6144e781614274565b81146144f257600080fd5b50565b600081359050614504816144de565b92915050565b6000602082840312156145205761451f6141e5565b5b600061452e848285016144f5565b91505092915050565b6000806000606084860312156145505761454f6141e5565b5b600061455e868287016142f3565b935050602061456f868287016142f3565b925050604061458086828701614432565b9150509250925092565b600060ff82169050919050565b6145a08161458a565b82525050565b60006020820190506145bb6000830184614597565b92915050565b6000819050919050565b6145d4816145c1565b82525050565b60006020820190506145ef60008301846145cb565b92915050565b600080fd5b600080fd5b7f4e487b7100000000000000000000000000000000000000000000000000000000600052604160045260246000fd5b614637826143af565b810181811067ffffffffffffffff82111715614656576146556145ff565b5b80604052505050565b60006146696141db565b9050614675828261462e565b919050565b600067ffffffffffffffff821115614695576146946145ff565b5b61469e826143af565b9050602081019050919050565b82818337600083830152505050565b60006146cd6146c88461467a565b61465f565b9050828152602081018484840111156146e9576146e86145fa565b5b6146f48482856146ab565b509392505050565b600082601f830112614711576147106145f5565b5b81356147218482602086016146ba565b91505092915050565b6000602082840312156147405761473f6141e5565b5b600082013567ffffffffffffffff81111561475e5761475d6141ea565b5b61476a848285016146fc565b91505092915050565b600067ffffffffffffffff82111561478e5761478d6145ff565b5b602082029050602081019050919050565b600080fd5b6147ad816145c1565b81146147b857600080fd5b50565b6000813590506147ca816147a4565b92915050565b60006147e36147de84614773565b61465f565b905080838252602082019050602084028301858111156148065761480561479f565b5b835b8181101561482f578061481b88826147bb565b845260208401935050602081019050614808565b5050509392505050565b600082601f83011261484e5761484d6145f5565b5b813561485e8482602086016147d0565b91505092915050565b6000806000606084860312156148805761487f6141e5565b5b600084013567ffffffffffffffff81111561489e5761489d6141ea565b5b6148aa86828701614839565b93505060206148bb868287016142f3565b92505060406148cc86828701614432565b9150509250925092565b600080604083850312156148ed576148ec6141e5565b5b600083013567ffffffffffffffff81111561490b5761490a6141ea565b5b61491785828601614839565b925050602061492885828601614432565b9150509250929050565b60008060408385031215614949576149486141e5565b5b6000614957858286016142f3565b9250506020614968858286016144f5565b9150509250929050565b600081519050919050565b600082825260208201905092915050565b6000819050602082019050919050565b6149a781614335565b82525050565b60006149b9838361499e565b60208301905092915050565b6000602082019050919050565b60006149dd82614972565b6149e7818561497d565b93506149f28361498e565b8060005b83811015614a23578151614a0a88826149ad565b9750614a15836149c5565b9250506001810190506149f6565b5085935050505092915050565b60006020820190508181036000830152614a4a81846149d2565b905092915050565b600080fd5b60008083601f840112614a6d57614a6c6145f5565b5b8235905067ffffffffffffffff811115614a8a57614a89614a52565b5b602083019150836001820283011115614aa657614aa561479f565b5b9250929050565b600080600080600060808688031215614ac957614ac86141e5565b5b6000614ad7888289016142f3565b9550506020614ae8888289016142f3565b9450506040614af988828901614432565b935050606086013567ffffffffffffffff811115614b1a57614b196141ea565b5b614b2688828901614a57565b92509250509295509295909350565b614b3e8161458a565b8114614b4957600080fd5b50565b600081359050614b5b81614b35565b92915050565b600080600080600080600060e0888a031215614b8057614b7f6141e5565b5b6000614b8e8a828b016142f3565b9750506020614b9f8a828b016142f3565b9650506040614bb08a828b01614432565b9550506060614bc18a828b01614432565b9450506080614bd28a828b01614b4c565b93505060a0614be38a828b016147bb565b92505060c0614bf48a828b016147bb565b91505092959891949750929550565b60008060408385031215614c1a57614c196141e5565b5b6000614c28858286016142f3565b9250506020614c39858286016142f3565b9150509250929050565b7f4e487b7100000000000000000000000000000000000000000000000000000000600052602260045260246000fd5b60006002820490506001821680614c8a57607f821691505b602082108103614c9d57614c9c614c43565b5b50919050565b6000606082019050614cb86000830186614474565b614cc56020830185614474565b614cd2604083018461433f565b949350505050565b7f4e487b7100000000000000000000000000000000000000000000000000000000600052601160045260246000fd5b6000614d1482614335565b9150614d1f83614335565b9250828203905081811115614d3757614d36614cda565b5b92915050565b6000614d4882614335565b9150614d5383614335565b9250828202614d6181614335565b91508282048414831517614d7857614d77614cda565b5b5092915050565b7f4e487b7100000000000000000000000000000000000000000000000000000000600052601260045260246000fd5b6000614db982614335565b9150614dc483614335565b925082614dd457614dd3614d7f565b5b828204905092915050565b6000604082019050614df4600083018561433f565b614e01602083018461433f565b9392505050565b6000614e1382614335565b9150614e1e83614335565b9250828201905080821115614e3657614e35614cda565b5b92915050565b600082825260208201905092915050565b50565b6000614e5d600083614e3c565b9150614e6882614e4d565b600082019050919050565b6000608082019050614e886000830186614474565b614e956020830185614474565b614ea2604083018461433f565b8181036060830152614eb381614e50565b9050949350505050565b600081519050614ecc8161421b565b92915050565b600060208284031215614ee857614ee76141e5565b5b6000614ef684828501614ebd565b91505092915050565b60008190508160005260206000209050919050565b60006020601f8301049050919050565b600082821b905092915050565b600060088302614f617fffffffffffffffffffffffffffffffffffffffffffffffffffffffffffffffff82614f24565b614f6b8683614f24565b95508019841693508086168417925050509392505050565b6000819050919050565b6000614fa8614fa3614f9e84614335565b614f83565b614335565b9050919050565b6000819050919050565b614fc283614f8d565b614fd6614fce82614faf565b848454614f31565b825550505050565b600090565b614feb614fde565b614ff6818484614fb9565b505050565b5b8181101561501a5761500f600082614fe3565b600181019050614ffc565b5050565b601f82111561505f5761503081614eff565b61503984614f14565b81016020851015615048578190505b61505c61505485614f14565b830182614ffb565b50505b505050565b600082821c905092915050565b600061508260001984600802615064565b1980831691505092915050565b600061509b8383615071565b9150826002028217905092915050565b6150b482614369565b67ffffffffffffffff8111156150cd576150cc6145ff565b5b6150d78254614c72565b6150e282828561501e565b600060209050601f8311600181146151155760008415615103578287015190505b61510d858261508f565b865550615175565b601f19841661512386614eff565b60005b8281101561514b57848901518255600182019150602085019450602081019050615126565b868310156151685784890151615164601f891682615071565b8355505b6001600288020188555050505b505050505050565b60006040820190506151926000830185614474565b61519f602083018461433f565b9392505050565b6000819050919050565b6151c16151bc826145c1565b6151a6565b82525050565b60006151d382846151b0565b60208201915081905092915050565b60006151ee8385614e3c565b93506151fb8385846146ab565b615204836143af565b840190509392505050565b60006080820190506152246000830188614474565b6152316020830187614474565b61523e604083018661433f565b81810360608301526152518184866151e2565b90509695505050505050565b600081905092915050565b600061527382614369565b61527d818561525d565b935061528d818560208601614385565b80840191505092915050565b600081546152a681614c72565b6152b0818661525d565b945060018216600081146152cb57600181146152e057615313565b60ff1983168652811515820286019350615313565b6152e985614eff565b60005b8381101561530b578154818901526001820191506020810190506152ec565b838801955050505b50505092915050565b60006153288286615268565b91506153348285615268565b91506153408284615299565b9150819050949350505050565b600060c08201905061536260008301896145cb565b61536f6020830188614474565b61537c6040830187614474565b615389606083018661433f565b615396608083018561433f565b6153a360a083018461433f565b979650505050505050565b7f1901000000000000000000000000000000000000000000000000000000000000600082015250565b60006153e460028361525d565b91506153ef826153ae565b600282019050919050565b6000615405826153d7565b915061541182856151b0565b60208201915061542182846151b0565b6020820191508190509392505050565b600060808201905061544660008301876145cb565b6154536020830186614597565b61546060408301856145cb565b61546d60608301846145cb565b95945050505050565b7f696e73756666696369656e742062616c616e636520696e20636f6e7472616374600082015250565b60006154ac602083614374565b91506154b782615476565b602082019050919050565b600060208201905081810360008301526154db8161549f565b9050919050565b7f4e487b7100000000000000000000000000000000000000000000000000000000600052603260045260246000fd5b7f4e487b7100000000000000000000000000000000000000000000000000000000600052603160045260246000fd5b600061554b82614335565b915061555683614335565b92508261556657615565614d7f565b5b828206905092915050565b600081905092915050565b60008190508160005260206000209050919050565b6000815461559e81614c72565b6155a88186615571565b945060018216600081146155c357600181146155d85761560b565b60ff198316865281151582028601935061560b565b6155e18561557c565b60005b83811015615603578154818901526001820191506020810190506155e4565b838801955050505b50505092915050565b60006156208284615591565b915081905092915050565b600060a08201905061564060008301886145cb565b61564d60208301876145cb565b61565a60408301866145cb565b615667606083018561433f565b6156746080830184614474565b9695505050505050565b600061568982614335565b91507fffffffffffffffffffffffffffffffffffffffffffffffffffffffffffffffff82036156bb576156ba614cda565b5b60018201905091905056fea26469706673582212205a7b7f075c6f21d0f5f0bd785d5b6b8c8bf60e26f562ef166ab3b1faa9bdc21464736f6c63430008140033",
  "linkReferences": {},
  "deployedLinkReferences": {}
}